{
  "address": "0xf4B146FbA71F41E0592668ffbF264F1D186b2Ca8",
  "abi": [
    {
      "inputs": [],
      "stateMutability": "nonpayable",
      "type": "constructor"
    },
    {
      "anonymous": false,
      "inputs": [
        {
          "indexed": true,
          "internalType": "address",
          "name": "owner",
          "type": "address"
        },
        {
          "indexed": true,
          "internalType": "address",
          "name": "approved",
          "type": "address"
        },
        {
          "indexed": true,
          "internalType": "uint256",
          "name": "tokenId",
          "type": "uint256"
        }
      ],
      "name": "Approval",
      "type": "event"
    },
    {
      "anonymous": false,
      "inputs": [
        {
          "indexed": true,
          "internalType": "address",
          "name": "owner",
          "type": "address"
        },
        {
          "indexed": true,
          "internalType": "address",
          "name": "operator",
          "type": "address"
        },
        {
          "indexed": false,
          "internalType": "bool",
          "name": "approved",
          "type": "bool"
        }
      ],
      "name": "ApprovalForAll",
      "type": "event"
    },
    {
      "anonymous": false,
      "inputs": [
        {
          "indexed": true,
          "internalType": "address",
          "name": "sender",
          "type": "address"
        },
        {
          "indexed": false,
          "internalType": "string",
          "name": "message",
          "type": "string"
        }
      ],
      "name": "CarServiceDone",
      "type": "event"
    },
    {
      "anonymous": false,
      "inputs": [
        {
          "indexed": true,
          "internalType": "address",
          "name": "previousOwner",
          "type": "address"
        },
        {
          "indexed": true,
          "internalType": "address",
          "name": "newOwner",
          "type": "address"
        }
      ],
      "name": "OwnershipTransferred",
      "type": "event"
    },
    {
      "anonymous": false,
      "inputs": [
        {
          "indexed": true,
          "internalType": "address",
          "name": "from",
          "type": "address"
        },
        {
          "indexed": true,
          "internalType": "address",
          "name": "to",
          "type": "address"
        },
        {
          "indexed": true,
          "internalType": "uint256",
          "name": "tokenId",
          "type": "uint256"
        }
      ],
      "name": "Transfer",
      "type": "event"
    },
    {
      "inputs": [
        {
          "internalType": "address",
          "name": "to",
          "type": "address"
        },
        {
          "internalType": "uint256",
          "name": "tokenId",
          "type": "uint256"
        }
      ],
      "name": "approve",
      "outputs": [],
      "stateMutability": "nonpayable",
      "type": "function"
    },
    {
      "inputs": [
        {
          "internalType": "address",
          "name": "owner",
          "type": "address"
        }
      ],
      "name": "balanceOf",
      "outputs": [
        {
          "internalType": "uint256",
          "name": "",
          "type": "uint256"
        }
      ],
      "stateMutability": "view",
      "type": "function"
    },
    {
      "inputs": [
        {
          "internalType": "uint256",
          "name": "",
          "type": "uint256"
        }
      ],
      "name": "car_services_done",
      "outputs": [
        {
          "internalType": "uint256",
          "name": "",
          "type": "uint256"
        }
      ],
      "stateMutability": "view",
      "type": "function"
    },
    {
      "inputs": [
        {
          "internalType": "uint256",
          "name": "",
          "type": "uint256"
        }
      ],
      "name": "chassis_number",
      "outputs": [
        {
          "internalType": "string",
          "name": "",
          "type": "string"
        }
      ],
      "stateMutability": "view",
      "type": "function"
    },
    {
      "inputs": [
        {
          "internalType": "uint256",
          "name": "_tokenId",
          "type": "uint256"
        },
        {
          "internalType": "string",
          "name": "_license_plate",
          "type": "string"
        },
        {
          "internalType": "string",
          "name": "_chassis",
          "type": "string"
        },
        {
          "internalType": "string",
          "name": "_manufacturer",
          "type": "string"
        },
        {
          "internalType": "string",
          "name": "_model",
          "type": "string"
        },
        {
          "internalType": "string",
          "name": "_year",
          "type": "string"
        }
      ],
      "name": "fillCCC",
      "outputs": [],
      "stateMutability": "nonpayable",
      "type": "function"
    },
    {
      "inputs": [
        {
          "internalType": "uint256",
          "name": "tokenId",
          "type": "uint256"
        }
      ],
      "name": "getApproved",
      "outputs": [
        {
          "internalType": "address",
          "name": "",
          "type": "address"
        }
      ],
      "stateMutability": "view",
      "type": "function"
    },
    {
      "inputs": [
        {
          "internalType": "address",
          "name": "owner",
          "type": "address"
        },
        {
          "internalType": "address",
          "name": "operator",
          "type": "address"
        }
      ],
      "name": "isApprovedForAll",
      "outputs": [
        {
          "internalType": "bool",
          "name": "",
          "type": "bool"
        }
      ],
      "stateMutability": "view",
      "type": "function"
    },
    {
      "inputs": [
        {
          "internalType": "uint256",
          "name": "",
          "type": "uint256"
        }
      ],
      "name": "km",
      "outputs": [
        {
          "internalType": "uint256",
          "name": "",
          "type": "uint256"
        }
      ],
      "stateMutability": "view",
      "type": "function"
    },
    {
      "inputs": [
        {
          "internalType": "uint256",
          "name": "",
          "type": "uint256"
        },
        {
          "internalType": "uint256",
          "name": "",
          "type": "uint256"
        }
      ],
      "name": "km4service",
      "outputs": [
        {
          "internalType": "uint256",
          "name": "",
          "type": "uint256"
        }
      ],
      "stateMutability": "view",
      "type": "function"
    },
    {
      "inputs": [
        {
          "internalType": "uint256",
          "name": "",
          "type": "uint256"
        }
      ],
      "name": "license_plate",
      "outputs": [
        {
          "internalType": "string",
          "name": "",
          "type": "string"
        }
      ],
      "stateMutability": "view",
      "type": "function"
    },
    {
      "inputs": [
        {
          "internalType": "uint256",
          "name": "_updated_km",
          "type": "uint256"
        },
        {
          "internalType": "uint256",
          "name": "_tokenId",
          "type": "uint256"
        },
        {
          "internalType": "string",
          "name": "_message4services",
          "type": "string"
        }
      ],
      "name": "makeCarService",
      "outputs": [],
      "stateMutability": "nonpayable",
      "type": "function"
    },
    {
      "inputs": [
        {
          "internalType": "uint256",
          "name": "",
          "type": "uint256"
        }
      ],
      "name": "manufacturer",
      "outputs": [
        {
          "internalType": "string",
          "name": "",
          "type": "string"
        }
      ],
      "stateMutability": "view",
      "type": "function"
    },
    {
      "inputs": [],
      "name": "mintItem",
      "outputs": [
        {
          "internalType": "uint256",
          "name": "",
          "type": "uint256"
        }
      ],
      "stateMutability": "payable",
      "type": "function"
    },
    {
      "inputs": [
        {
          "internalType": "uint256",
          "name": "",
          "type": "uint256"
        }
      ],
      "name": "model",
      "outputs": [
        {
          "internalType": "string",
          "name": "",
          "type": "string"
        }
      ],
      "stateMutability": "view",
      "type": "function"
    },
    {
      "inputs": [],
      "name": "name",
      "outputs": [
        {
          "internalType": "string",
          "name": "",
          "type": "string"
        }
      ],
      "stateMutability": "view",
      "type": "function"
    },
    {
      "inputs": [
        {
          "internalType": "uint256",
          "name": "",
          "type": "uint256"
        },
        {
          "internalType": "uint256",
          "name": "",
          "type": "uint256"
        }
      ],
      "name": "note4service",
      "outputs": [
        {
          "internalType": "string",
          "name": "",
          "type": "string"
        }
      ],
      "stateMutability": "view",
      "type": "function"
    },
    {
      "inputs": [],
      "name": "owner",
      "outputs": [
        {
          "internalType": "address",
          "name": "",
          "type": "address"
        }
      ],
      "stateMutability": "view",
      "type": "function"
    },
    {
      "inputs": [
        {
          "internalType": "uint256",
          "name": "tokenId",
          "type": "uint256"
        }
      ],
      "name": "ownerOf",
      "outputs": [
        {
          "internalType": "address",
          "name": "",
          "type": "address"
        }
      ],
      "stateMutability": "view",
      "type": "function"
    },
    {
      "inputs": [
        {
          "internalType": "uint256",
          "name": "",
          "type": "uint256"
        }
      ],
      "name": "past_owners",
      "outputs": [
        {
          "internalType": "uint256",
          "name": "",
          "type": "uint256"
        }
      ],
      "stateMutability": "view",
      "type": "function"
    },
    {
      "inputs": [],
      "name": "price",
      "outputs": [
        {
          "internalType": "uint256",
          "name": "",
          "type": "uint256"
        }
      ],
      "stateMutability": "view",
      "type": "function"
    },
    {
      "inputs": [
        {
          "internalType": "uint256",
          "name": "",
          "type": "uint256"
        }
      ],
      "name": "production_year",
      "outputs": [
        {
          "internalType": "string",
          "name": "",
          "type": "string"
        }
      ],
      "stateMutability": "view",
      "type": "function"
    },
    {
      "inputs": [],
      "name": "recipient",
      "outputs": [
        {
          "internalType": "address payable",
          "name": "",
          "type": "address"
        }
      ],
      "stateMutability": "view",
      "type": "function"
    },
    {
      "inputs": [
        {
          "internalType": "uint256",
          "name": "_id",
          "type": "uint256"
        }
      ],
      "name": "renderTokenById",
      "outputs": [
        {
          "internalType": "string",
          "name": "",
          "type": "string"
        }
      ],
      "stateMutability": "view",
      "type": "function"
    },
    {
      "inputs": [],
      "name": "renounceOwnership",
      "outputs": [],
      "stateMutability": "nonpayable",
      "type": "function"
    },
    {
      "inputs": [
        {
          "internalType": "address",
          "name": "from",
          "type": "address"
        },
        {
          "internalType": "address",
          "name": "to",
          "type": "address"
        },
        {
          "internalType": "uint256",
          "name": "tokenId",
          "type": "uint256"
        }
      ],
      "name": "safeTransferFrom",
      "outputs": [],
      "stateMutability": "nonpayable",
      "type": "function"
    },
    {
      "inputs": [
        {
          "internalType": "address",
          "name": "from",
          "type": "address"
        },
        {
          "internalType": "address",
          "name": "to",
          "type": "address"
        },
        {
          "internalType": "uint256",
          "name": "tokenId",
          "type": "uint256"
        },
        {
          "internalType": "bytes",
          "name": "_data",
          "type": "bytes"
        }
      ],
      "name": "safeTransferFrom",
      "outputs": [],
      "stateMutability": "nonpayable",
      "type": "function"
    },
    {
      "inputs": [
        {
          "internalType": "address",
          "name": "operator",
          "type": "address"
        },
        {
          "internalType": "bool",
          "name": "approved",
          "type": "bool"
        }
      ],
      "name": "setApprovalForAll",
      "outputs": [],
      "stateMutability": "nonpayable",
      "type": "function"
    },
    {
      "inputs": [
        {
          "internalType": "bytes4",
          "name": "interfaceId",
          "type": "bytes4"
        }
      ],
      "name": "supportsInterface",
      "outputs": [
        {
          "internalType": "bool",
          "name": "",
          "type": "bool"
        }
      ],
      "stateMutability": "view",
      "type": "function"
    },
    {
      "inputs": [],
      "name": "symbol",
      "outputs": [
        {
          "internalType": "string",
          "name": "",
          "type": "string"
        }
      ],
      "stateMutability": "view",
      "type": "function"
    },
    {
      "inputs": [
        {
          "internalType": "uint256",
          "name": "index",
          "type": "uint256"
        }
      ],
      "name": "tokenByIndex",
      "outputs": [
        {
          "internalType": "uint256",
          "name": "",
          "type": "uint256"
        }
      ],
      "stateMutability": "view",
      "type": "function"
    },
    {
      "inputs": [
        {
          "internalType": "address",
          "name": "owner",
          "type": "address"
        },
        {
          "internalType": "uint256",
          "name": "index",
          "type": "uint256"
        }
      ],
      "name": "tokenOfOwnerByIndex",
      "outputs": [
        {
          "internalType": "uint256",
          "name": "",
          "type": "uint256"
        }
      ],
      "stateMutability": "view",
      "type": "function"
    },
    {
      "inputs": [
        {
          "internalType": "uint256",
          "name": "id",
          "type": "uint256"
        }
      ],
      "name": "tokenURI",
      "outputs": [
        {
          "internalType": "string",
          "name": "",
          "type": "string"
        }
      ],
      "stateMutability": "view",
      "type": "function"
    },
    {
      "inputs": [],
      "name": "totalSupply",
      "outputs": [
        {
          "internalType": "uint256",
          "name": "",
          "type": "uint256"
        }
      ],
      "stateMutability": "view",
      "type": "function"
    },
    {
      "inputs": [
        {
          "internalType": "address",
          "name": "from",
          "type": "address"
        },
        {
          "internalType": "address",
          "name": "to",
          "type": "address"
        },
        {
          "internalType": "uint256",
          "name": "tokenId",
          "type": "uint256"
        }
      ],
      "name": "transferFrom",
      "outputs": [],
      "stateMutability": "nonpayable",
      "type": "function"
    },
    {
      "inputs": [
        {
          "internalType": "address",
          "name": "newOwner",
          "type": "address"
        }
      ],
      "name": "transferOwnership",
      "outputs": [],
      "stateMutability": "nonpayable",
      "type": "function"
    }
  ],
  "transactionHash": "0x331d63777213ac3864d605c8673ca94e9c6154b7227374d1eff42856efb26cda",
  "args": [],
  "solcInputHash": "8104bbdb1642422171f5594025f82e32",
  "bytecode": "0x608060405266038d7ea4c68000600c553480156200001c57600080fd5b506040518060400160405280601981526020017f4361722043657274696669636174696f6e206f6e436861696e000000000000008152506040518060400160405280600381526020017f43434300000000000000000000000000000000000000000000000000000000008152508160009080519060200190620000a1929190620001b1565b508060019080519060200190620000ba929190620001b1565b505050620000dd620000d1620000e360201b60201c565b620000eb60201b60201c565b620002c6565b600033905090565b6000600a60009054906101000a900473ffffffffffffffffffffffffffffffffffffffff16905081600a60006101000a81548173ffffffffffffffffffffffffffffffffffffffff021916908373ffffffffffffffffffffffffffffffffffffffff1602179055508173ffffffffffffffffffffffffffffffffffffffff168173ffffffffffffffffffffffffffffffffffffffff167f8be0079c531659141344cd1fd0a4f28419497f9722a3daafe3b4186f6b6457e060405160405180910390a35050565b828054620001bf9062000261565b90600052602060002090601f016020900481019282620001e357600085556200022f565b82601f10620001fe57805160ff19168380011785556200022f565b828001600101855582156200022f579182015b828111156200022e57825182559160200191906001019062000211565b5b5090506200023e919062000242565b5090565b5b808211156200025d57600081600090555060010162000243565b5090565b600060028204905060018216806200027a57607f821691505b6020821081141562000291576200029062000297565b5b50919050565b7f4e487b7100000000000000000000000000000000000000000000000000000000600052602260045260246000fd5b615bab80620002d66000396000f3fe6080604052600436106102045760003560e01c80638da5cb5b11610118578063bc379fc8116100a0578063c87b56dd1161006f578063c87b56dd14610811578063c97fb8ed1461084e578063e985e9c51461088b578063eb93406b146108c8578063f2fde38b146108e657610204565b8063bc379fc814610731578063c2e200111461076e578063c673682f146107ab578063c6fad3b4146107e857610204565b8063a2d6c6da116100e7578063a2d6c6da14610614578063a43271b914610651578063a9436bfd1461068e578063b09a676c146106cb578063b88d4fde1461070857610204565b80638da5cb5b1461056a57806395d89b4114610595578063a035b1fe146105c0578063a22cb465146105eb57610204565b806342842e0e1161019b57806366d003ac1161016a57806366d003ac1461048557806370a08231146104b0578063715018a6146104ed578063808ab6c9146105045780638cc18fe71461052d57610204565b806342842e0e146103a55780634c5770d9146103ce5780634f6ccce71461040b5780636352211e1461044857610204565b80631746e673116101d75780631746e673146102d757806318160ddd1461031457806323b872dd1461033f5780632f745c591461036857610204565b806301ffc9a71461020957806306fdde0314610246578063081812fc14610271578063095ea7b3146102ae575b600080fd5b34801561021557600080fd5b50610230600480360381019061022b9190613a8c565b61090f565b60405161023d919061475c565b60405180910390f35b34801561025257600080fd5b5061025b610989565b6040516102689190614777565b60405180910390f35b34801561027d57600080fd5b5061029860048036038101906102939190613ade565b610a1b565b6040516102a591906146da565b60405180910390f35b3480156102ba57600080fd5b506102d560048036038101906102d09190613a50565b610aa0565b005b3480156102e357600080fd5b506102fe60048036038101906102f99190613c08565b610bb8565b60405161030b9190614a79565b60405180910390f35b34801561032057600080fd5b50610329610bdd565b6040516103369190614a79565b60405180910390f35b34801561034b57600080fd5b506103666004803603810190610361919061394a565b610bea565b005b34801561037457600080fd5b5061038f600480360381019061038a9190613a50565b610c4a565b60405161039c9190614a79565b60405180910390f35b3480156103b157600080fd5b506103cc60048036038101906103c7919061394a565b610cef565b005b3480156103da57600080fd5b506103f560048036038101906103f09190613ade565b610d0f565b6040516104029190614777565b60405180910390f35b34801561041757600080fd5b50610432600480360381019061042d9190613ade565b610daf565b60405161043f9190614a79565b60405180910390f35b34801561045457600080fd5b5061046f600480360381019061046a9190613ade565b610e46565b60405161047c91906146da565b60405180910390f35b34801561049157600080fd5b5061049a610ef8565b6040516104a791906146f5565b60405180910390f35b3480156104bc57600080fd5b506104d760048036038101906104d291906138e5565b610f10565b6040516104e49190614a79565b60405180910390f35b3480156104f957600080fd5b50610502610fc8565b005b34801561051057600080fd5b5061052b60048036038101906105269190613c44565b611050565b005b34801561053957600080fd5b50610554600480360381019061054f9190613ade565b611237565b6040516105619190614a79565b60405180910390f35b34801561057657600080fd5b5061057f61124f565b60405161058c91906146da565b60405180910390f35b3480156105a157600080fd5b506105aa611279565b6040516105b79190614777565b60405180910390f35b3480156105cc57600080fd5b506105d561130b565b6040516105e29190614a79565b60405180910390f35b3480156105f757600080fd5b50610612600480360381019061060d9190613a14565b611311565b005b34801561062057600080fd5b5061063b60048036038101906106369190613ade565b611492565b6040516106489190614777565b60405180910390f35b34801561065d57600080fd5b5061067860048036038101906106739190613ade565b611597565b6040516106859190614777565b60405180910390f35b34801561069a57600080fd5b506106b560048036038101906106b09190613c08565b611637565b6040516106c29190614777565b60405180910390f35b3480156106d757600080fd5b506106f260048036038101906106ed9190613ade565b6116e4565b6040516106ff9190614a79565b60405180910390f35b34801561071457600080fd5b5061072f600480360381019061072a9190613999565b6116fc565b005b34801561073d57600080fd5b5061075860048036038101906107539190613ade565b61175e565b6040516107659190614777565b60405180910390f35b34801561077a57600080fd5b5061079560048036038101906107909190613ade565b6117fe565b6040516107a29190614777565b60405180910390f35b3480156107b757600080fd5b506107d260048036038101906107cd9190613ade565b61189e565b6040516107df9190614a79565b60405180910390f35b3480156107f457600080fd5b5061080f600480360381019061080a9190613b07565b6118b6565b005b34801561081d57600080fd5b5061083860048036038101906108339190613ade565b611a47565b6040516108459190614777565b60405180910390f35b34801561085a57600080fd5b5061087560048036038101906108709190613ade565b611b86565b6040516108829190614777565b60405180910390f35b34801561089757600080fd5b506108b260048036038101906108ad919061390e565b611c26565b6040516108bf919061475c565b60405180910390f35b6108d0611cba565b6040516108dd9190614a79565b60405180910390f35b3480156108f257600080fd5b5061090d600480360381019061090891906138e5565b611deb565b005b60007f780e9d63000000000000000000000000000000000000000000000000000000007bffffffffffffffffffffffffffffffffffffffffffffffffffffffff1916827bffffffffffffffffffffffffffffffffffffffffffffffffffffffff19161480610982575061098182611ee3565b5b9050919050565b60606000805461099890614dc9565b80601f01602080910402602001604051908101604052809291908181526020018280546109c490614dc9565b8015610a115780601f106109e657610100808354040283529160200191610a11565b820191906000526020600020905b8154815290600101906020018083116109f457829003601f168201915b5050505050905090565b6000610a2682611fc5565b610a65576040517f08c379a0000000000000000000000000000000000000000000000000000000008152600401610a5c90614999565b60405180910390fd5b6004600083815260200190815260200160002060009054906101000a900473ffffffffffffffffffffffffffffffffffffffff169050919050565b6000610aab82610e46565b90508073ffffffffffffffffffffffffffffffffffffffff168373ffffffffffffffffffffffffffffffffffffffff161415610b1c576040517f08c379a0000000000000000000000000000000000000000000000000000000008152600401610b1390614a19565b60405180910390fd5b8073ffffffffffffffffffffffffffffffffffffffff16610b3b612031565b73ffffffffffffffffffffffffffffffffffffffff161480610b6a5750610b6981610b64612031565b611c26565b5b610ba9576040517f08c379a0000000000000000000000000000000000000000000000000000000008152600401610ba0906148f9565b60405180910390fd5b610bb38383612039565b505050565b6010602052816000526040600020602052806000526040600020600091509150505481565b6000600880549050905090565b610bfb610bf5612031565b826120f2565b610c3a576040517f08c379a0000000000000000000000000000000000000000000000000000000008152600401610c3190614a39565b60405180910390fd5b610c458383836121d0565b505050565b6000610c5583610f10565b8210610c96576040517f08c379a0000000000000000000000000000000000000000000000000000000008152600401610c8d906147d9565b60405180910390fd5b600660008473ffffffffffffffffffffffffffffffffffffffff1673ffffffffffffffffffffffffffffffffffffffff168152602001908152602001600020600083815260200190815260200160002054905092915050565b610d0a838383604051806020016040528060008152506116fc565b505050565b60146020528060005260406000206000915090508054610d2e90614dc9565b80601f0160208091040260200160405190810160405280929190818152602001828054610d5a90614dc9565b8015610da75780601f10610d7c57610100808354040283529160200191610da7565b820191906000526020600020905b815481529060010190602001808311610d8a57829003601f168201915b505050505081565b6000610db9610bdd565b8210610dfa576040517f08c379a0000000000000000000000000000000000000000000000000000000008152600401610df190614a59565b60405180910390fd5b60088281548110610e34577f4e487b7100000000000000000000000000000000000000000000000000000000600052603260045260246000fd5b90600052602060002001549050919050565b6000806002600084815260200190815260200160002060009054906101000a900473ffffffffffffffffffffffffffffffffffffffff169050600073ffffffffffffffffffffffffffffffffffffffff168173ffffffffffffffffffffffffffffffffffffffff161415610eef576040517f08c379a0000000000000000000000000000000000000000000000000000000008152600401610ee690614939565b60405180910390fd5b80915050919050565b73a81a6a910fed20374361b35c451a4a44f86ced4681565b60008073ffffffffffffffffffffffffffffffffffffffff168273ffffffffffffffffffffffffffffffffffffffff161415610f81576040517f08c379a0000000000000000000000000000000000000000000000000000000008152600401610f7890614919565b60405180910390fd5b600360008373ffffffffffffffffffffffffffffffffffffffff1673ffffffffffffffffffffffffffffffffffffffff168152602001908152602001600020549050919050565b610fd0612031565b73ffffffffffffffffffffffffffffffffffffffff16610fee61124f565b73ffffffffffffffffffffffffffffffffffffffff1614611044576040517f08c379a000000000000000000000000000000000000000000000000000000000815260040161103b906149b9565b60405180910390fd5b61104e600061220b565b565b3373ffffffffffffffffffffffffffffffffffffffff1661107083610e46565b73ffffffffffffffffffffffffffffffffffffffff16146110c6576040517f08c379a00000000000000000000000000000000000000000000000000000000081526004016110bd906147b9565b60405180910390fd5b600e600083815260200190815260200160002054831161111b576040517f08c379a000000000000000000000000000000000000000000000000000000000815260040161111290614959565b60405180910390fd5b82600e6000848152602001908152602001600020819055506001600f600084815260200190815260200160002060008282546111579190614b7e565b9250508190555082601060008481526020019081526020016000206000600f60008681526020019081526020016000205481526020019081526020016000208190555080601160008481526020019081526020016000206000600f600086815260200190815260200160002054815260200190815260200160002090805190602001906111e5929190613709565b503373ffffffffffffffffffffffffffffffffffffffff167f7132a69ea7bd730e7034de8a2446d58dc387567ff160715e51b7a9ef9a50d56460405161122a90614799565b60405180910390a2505050565b600e6020528060005260406000206000915090505481565b6000600a60009054906101000a900473ffffffffffffffffffffffffffffffffffffffff16905090565b60606001805461128890614dc9565b80601f01602080910402602001604051908101604052809291908181526020018280546112b490614dc9565b80156113015780601f106112d657610100808354040283529160200191611301565b820191906000526020600020905b8154815290600101906020018083116112e457829003601f168201915b5050505050905090565b600c5481565b611319612031565b73ffffffffffffffffffffffffffffffffffffffff168273ffffffffffffffffffffffffffffffffffffffff161415611387576040517f08c379a000000000000000000000000000000000000000000000000000000000815260040161137e90614899565b60405180910390fd5b8060056000611394612031565b73ffffffffffffffffffffffffffffffffffffffff1673ffffffffffffffffffffffffffffffffffffffff16815260200190815260200160002060008473ffffffffffffffffffffffffffffffffffffffff1673ffffffffffffffffffffffffffffffffffffffff16815260200190815260200160002060006101000a81548160ff0219169083151502179055508173ffffffffffffffffffffffffffffffffffffffff16611441612031565b73ffffffffffffffffffffffffffffffffffffffff167f17307eab39ab6107e8899845ad3d59bd9653f200f220920489ca2b5937696c3183604051611486919061475c565b60405180910390a35050565b606060006114b260166000858152602001908152602001600020546122d1565b6013600085815260200190815260200160002060146000868152602001908152602001600020600d6000878152602001908152602001600020601260008881526020019081526020016000206015600089815260200190815260200160002061152d600e60008b8152602001908152602001600020546123ab565b611549600f60008c8152602001908152602001600020546123ab565b611565601660008d8152602001908152602001600020546123ab565b60405160200161157d99989796959493929190614573565b604051602081830303815290604052905080915050919050565b601360205280600052604060002060009150905080546115b690614dc9565b80601f01602080910402602001604051908101604052809291908181526020018280546115e290614dc9565b801561162f5780601f106116045761010080835404028352916020019161162f565b820191906000526020600020905b81548152906001019060200180831161161257829003601f168201915b505050505081565b601160205281600052604060002060205280600052604060002060009150915050805461166390614dc9565b80601f016020809104026020016040519081016040528092919081815260200182805461168f90614dc9565b80156116dc5780601f106116b1576101008083540402835291602001916116dc565b820191906000526020600020905b8154815290600101906020018083116116bf57829003601f168201915b505050505081565b600f6020528060005260406000206000915090505481565b61170d611707612031565b836120f2565b61174c576040517f08c379a000000000000000000000000000000000000000000000000000000000815260040161174390614a39565b60405180910390fd5b61175884848484612580565b50505050565b6012602052806000526040600020600091509050805461177d90614dc9565b80601f01602080910402602001604051908101604052809291908181526020018280546117a990614dc9565b80156117f65780601f106117cb576101008083540402835291602001916117f6565b820191906000526020600020905b8154815290600101906020018083116117d957829003601f168201915b505050505081565b6015602052806000526040600020600091509050805461181d90614dc9565b80601f016020809104026020016040519081016040528092919081815260200182805461184990614dc9565b80156118965780601f1061186b57610100808354040283529160200191611896565b820191906000526020600020905b81548152906001019060200180831161187957829003601f168201915b505050505081565b60166020528060005260406000206000915090505481565b3373ffffffffffffffffffffffffffffffffffffffff166118d687610e46565b73ffffffffffffffffffffffffffffffffffffffff161461192c576040517f08c379a0000000000000000000000000000000000000000000000000000000008152600401611923906147b9565b60405180910390fd5b84600d60008881526020019081526020016000209080519060200190611953929190613709565b506000600e6000888152602001908152602001600020819055506000600f60008881526020019081526020016000208190555060006016600088815260200190815260200160002081905550836012600088815260200190815260200160002090805190602001906119c6929190613709565b50826013600088815260200190815260200160002090805190602001906119ee929190613709565b5081601460008881526020019081526020016000209080519060200190611a16929190613709565b5080601560008881526020019081526020016000209080519060200190611a3e929190613709565b50505050505050565b6060611a5282611fc5565b611a91576040517f08c379a0000000000000000000000000000000000000000000000000000000008152600401611a88906148d9565b60405180910390fd5b6000611a9c836125dc565b604051602001611aac9190614681565b60405160208183030381529060405290506000604051602001611ace9061455e565b60405160208183030381529060405290506000611af2611aed86612789565b6127c0565b9050611b5d8383611b02886125dc565b611b346014611b108b610e46565b73ffffffffffffffffffffffffffffffffffffffff1661295f90919063ffffffff16565b85604051602001611b49959493929190614499565b6040516020818303038152906040526127c0565b604051602001611b6d91906146a3565b6040516020818303038152906040529350505050919050565b600d6020528060005260406000206000915090508054611ba590614dc9565b80601f0160208091040260200160405190810160405280929190818152602001828054611bd190614dc9565b8015611c1e5780601f10611bf357610100808354040283529160200191611c1e565b820191906000526020600020905b815481529060010190602001808311611c0157829003601f168201915b505050505081565b6000600560008473ffffffffffffffffffffffffffffffffffffffff1673ffffffffffffffffffffffffffffffffffffffff16815260200190815260200160002060008373ffffffffffffffffffffffffffffffffffffffff1673ffffffffffffffffffffffffffffffffffffffff16815260200190815260200160002060009054906101000a900460ff16905092915050565b6000600c54341015611d01576040517f08c379a0000000000000000000000000000000000000000000000000000000008152600401611cf8906149f9565b60405180910390fd5b611d0b600b612c16565b6000611d17600b612c2c565b9050611d233382612c3a565b600073a81a6a910fed20374361b35c451a4a44f86ced4673ffffffffffffffffffffffffffffffffffffffff1634604051611d5d906146c5565b60006040518083038185875af1925050503d8060008114611d9a576040519150601f19603f3d011682016040523d82523d6000602084013e611d9f565b606091505b5050905080611de3576040517f08c379a0000000000000000000000000000000000000000000000000000000008152600401611dda906147f9565b60405180910390fd5b819250505090565b611df3612031565b73ffffffffffffffffffffffffffffffffffffffff16611e1161124f565b73ffffffffffffffffffffffffffffffffffffffff1614611e67576040517f08c379a0000000000000000000000000000000000000000000000000000000008152600401611e5e906149b9565b60405180910390fd5b600073ffffffffffffffffffffffffffffffffffffffff168173ffffffffffffffffffffffffffffffffffffffff161415611ed7576040517f08c379a0000000000000000000000000000000000000000000000000000000008152600401611ece90614839565b60405180910390fd5b611ee08161220b565b50565b60007f80ac58cd000000000000000000000000000000000000000000000000000000007bffffffffffffffffffffffffffffffffffffffffffffffffffffffff1916827bffffffffffffffffffffffffffffffffffffffffffffffffffffffff19161480611fae57507f5b5e139f000000000000000000000000000000000000000000000000000000007bffffffffffffffffffffffffffffffffffffffffffffffffffffffff1916827bffffffffffffffffffffffffffffffffffffffffffffffffffffffff1916145b80611fbe5750611fbd82612e08565b5b9050919050565b60008073ffffffffffffffffffffffffffffffffffffffff166002600084815260200190815260200160002060009054906101000a900473ffffffffffffffffffffffffffffffffffffffff1673ffffffffffffffffffffffffffffffffffffffff1614159050919050565b600033905090565b816004600083815260200190815260200160002060006101000a81548173ffffffffffffffffffffffffffffffffffffffff021916908373ffffffffffffffffffffffffffffffffffffffff160217905550808273ffffffffffffffffffffffffffffffffffffffff166120ac83610e46565b73ffffffffffffffffffffffffffffffffffffffff167f8c5be1e5ebec7d5bd14f71427d1e84f3dd0314c0f7b2291e5b200ac8c7c3b92560405160405180910390a45050565b60006120fd82611fc5565b61213c576040517f08c379a0000000000000000000000000000000000000000000000000000000008152600401612133906148b9565b60405180910390fd5b600061214783610e46565b90508073ffffffffffffffffffffffffffffffffffffffff168473ffffffffffffffffffffffffffffffffffffffff1614806121b657508373ffffffffffffffffffffffffffffffffffffffff1661219e84610a1b565b73ffffffffffffffffffffffffffffffffffffffff16145b806121c757506121c68185611c26565b5b91505092915050565b60016016600083815260200190815260200160002060008282546121f49190614b7e565b92505081905550612206838383612e72565b505050565b6000600a60009054906101000a900473ffffffffffffffffffffffffffffffffffffffff16905081600a60006101000a81548173ffffffffffffffffffffffffffffffffffffffff021916908373ffffffffffffffffffffffffffffffffffffffff1602179055508173ffffffffffffffffffffffffffffffffffffffff168173ffffffffffffffffffffffffffffffffffffffff167f8be0079c531659141344cd1fd0a4f28419497f9722a3daafe3b4186f6b6457e060405160405180910390a35050565b60606000821415612319576040518060400160405280600481526020017f676f6c640000000000000000000000000000000000000000000000000000000081525090506123a6565b6001821015801561232b575060038211155b1561236d576040518060400160405280600681526020017f73696c766572000000000000000000000000000000000000000000000000000081525090506123a6565b6040518060400160405280600681526020017f6f72616e6765000000000000000000000000000000000000000000000000000081525090505b919050565b606060008214156123f3576040518060400160405280600181526020017f3000000000000000000000000000000000000000000000000000000000000000815250905061257b565b600082905060005b6000821461242557808061240e90614e2c565b915050600a8261241e9190614c0b565b91506123fb565b60008167ffffffffffffffff811115612467577f4e487b7100000000000000000000000000000000000000000000000000000000600052604160045260246000fd5b6040519080825280601f01601f1916602001820160405280156124995781602001600182028036833780820191505090505b50905060008290505b60008614612573576001816124b79190614c96565b90506000600a80886124c99190614c0b565b6124d39190614c3c565b876124de9190614c96565b60306124ea9190614bd4565b905060008160f81b90508084848151811061252e577f4e487b7100000000000000000000000000000000000000000000000000000000600052603260045260246000fd5b60200101907effffffffffffffffffffffffffffffffffffffffffffffffffffffffffffff1916908160001a905350600a8861256a9190614c0b565b975050506124a2565b819450505050505b919050565b61258b8484846121d0565b612597848484846130ce565b6125d6576040517f08c379a00000000000000000000000000000000000000000000000000000000081526004016125cd90614819565b60405180910390fd5b50505050565b60606000821415612624576040518060400160405280600181526020017f30000000000000000000000000000000000000000000000000000000000000008152509050612784565b600082905060005b6000821461265657808061263f90614e2c565b915050600a8261264f9190614c0b565b915061262c565b60008167ffffffffffffffff811115612698577f4e487b7100000000000000000000000000000000000000000000000000000000600052604160045260246000fd5b6040519080825280601f01601f1916602001820160405280156126ca5781602001600182028036833780820191505090505b5090505b6000851461277d576001826126e39190614c96565b9150600a856126f29190614e75565b60306126fe9190614b7e565b60f81b81838151811061273a577f4e487b7100000000000000000000000000000000000000000000000000000000600052603260045260246000fd5b60200101907effffffffffffffffffffffffffffffffffffffffffffffffffffffffffffff1916908160001a905350600a856127769190614c0b565b94506126ce565b8093505050505b919050565b6060600061279683611492565b6040516020016127a69190614531565b604051602081830303815290604052905080915050919050565b60606000825114156127e35760405180602001604052806000815250905061295a565b6000604051806060016040528060408152602001615b3660409139905060006003600285516128129190614b7e565b61281c9190614c0b565b60046128289190614c3c565b905060006020826128399190614b7e565b67ffffffffffffffff811115612878577f4e487b7100000000000000000000000000000000000000000000000000000000600052604160045260246000fd5b6040519080825280601f01601f1916602001820160405280156128aa5781602001600182028036833780820191505090505b509050818152600183018586518101602084015b81831015612919576003830192508251603f8160121c168501518253600182019150603f81600c1c168501518253600182019150603f8160061c168501518253600182019150603f81168501518253600182019150506128be565b60038951066001811461293357600281146129435761294e565b613d3d60f01b600283035261294e565b603d60f81b60018303525b50505050508093505050505b919050565b6060600060028360026129729190614c3c565b61297c9190614b7e565b67ffffffffffffffff8111156129bb577f4e487b7100000000000000000000000000000000000000000000000000000000600052604160045260246000fd5b6040519080825280601f01601f1916602001820160405280156129ed5781602001600182028036833780820191505090505b5090507f300000000000000000000000000000000000000000000000000000000000000081600081518110612a4b577f4e487b7100000000000000000000000000000000000000000000000000000000600052603260045260246000fd5b60200101907effffffffffffffffffffffffffffffffffffffffffffffffffffffffffffff1916908160001a9053507f780000000000000000000000000000000000000000000000000000000000000081600181518110612ad5577f4e487b7100000000000000000000000000000000000000000000000000000000600052603260045260246000fd5b60200101907effffffffffffffffffffffffffffffffffffffffffffffffffffffffffffff1916908160001a90535060006001846002612b159190614c3c565b612b1f9190614b7e565b90505b6001811115612c0b577f3031323334353637383961626364656600000000000000000000000000000000600f861660108110612b87577f4e487b7100000000000000000000000000000000000000000000000000000000600052603260045260246000fd5b1a60f81b828281518110612bc4577f4e487b7100000000000000000000000000000000000000000000000000000000600052603260045260246000fd5b60200101907effffffffffffffffffffffffffffffffffffffffffffffffffffffffffffff1916908160001a905350600485901c945080612c0490614d9f565b9050612b22565b508091505092915050565b6001816000016000828254019250508190555050565b600081600001549050919050565b600073ffffffffffffffffffffffffffffffffffffffff168273ffffffffffffffffffffffffffffffffffffffff161415612caa576040517f08c379a0000000000000000000000000000000000000000000000000000000008152600401612ca190614979565b60405180910390fd5b612cb381611fc5565b15612cf3576040517f08c379a0000000000000000000000000000000000000000000000000000000008152600401612cea90614859565b60405180910390fd5b612cff60008383613265565b6001600360008473ffffffffffffffffffffffffffffffffffffffff1673ffffffffffffffffffffffffffffffffffffffff1681526020019081526020016000206000828254612d4f9190614b7e565b92505081905550816002600083815260200190815260200160002060006101000a81548173ffffffffffffffffffffffffffffffffffffffff021916908373ffffffffffffffffffffffffffffffffffffffff160217905550808273ffffffffffffffffffffffffffffffffffffffff16600073ffffffffffffffffffffffffffffffffffffffff167fddf252ad1be2c89b69c2b068fc378daa952ba7f163c4a11628f55a4df523b3ef60405160405180910390a45050565b60007f01ffc9a7000000000000000000000000000000000000000000000000000000007bffffffffffffffffffffffffffffffffffffffffffffffffffffffff1916827bffffffffffffffffffffffffffffffffffffffffffffffffffffffff1916149050919050565b8273ffffffffffffffffffffffffffffffffffffffff16612e9282610e46565b73ffffffffffffffffffffffffffffffffffffffff1614612ee8576040517f08c379a0000000000000000000000000000000000000000000000000000000008152600401612edf906149d9565b60405180910390fd5b600073ffffffffffffffffffffffffffffffffffffffff168273ffffffffffffffffffffffffffffffffffffffff161415612f58576040517f08c379a0000000000000000000000000000000000000000000000000000000008152600401612f4f90614879565b60405180910390fd5b612f63838383613265565b612f6e600082612039565b6001600360008573ffffffffffffffffffffffffffffffffffffffff1673ffffffffffffffffffffffffffffffffffffffff1681526020019081526020016000206000828254612fbe9190614c96565b925050819055506001600360008473ffffffffffffffffffffffffffffffffffffffff1673ffffffffffffffffffffffffffffffffffffffff16815260200190815260200160002060008282546130159190614b7e565b92505081905550816002600083815260200190815260200160002060006101000a81548173ffffffffffffffffffffffffffffffffffffffff021916908373ffffffffffffffffffffffffffffffffffffffff160217905550808273ffffffffffffffffffffffffffffffffffffffff168473ffffffffffffffffffffffffffffffffffffffff167fddf252ad1be2c89b69c2b068fc378daa952ba7f163c4a11628f55a4df523b3ef60405160405180910390a4505050565b60006130ef8473ffffffffffffffffffffffffffffffffffffffff16613379565b15613258578373ffffffffffffffffffffffffffffffffffffffff1663150b7a02613118612031565b8786866040518563ffffffff1660e01b815260040161313a9493929190614710565b602060405180830381600087803b15801561315457600080fd5b505af192505050801561318557506040513d601f19601f820116820180604052508101906131829190613ab5565b60015b613208573d80600081146131b5576040519150601f19603f3d011682016040523d82523d6000602084013e6131ba565b606091505b50600081511415613200576040517f08c379a00000000000000000000000000000000000000000000000000000000081526004016131f790614819565b60405180910390fd5b805181602001fd5b63150b7a0260e01b7bffffffffffffffffffffffffffffffffffffffffffffffffffffffff1916817bffffffffffffffffffffffffffffffffffffffffffffffffffffffff19161491505061325d565b600190505b949350505050565b61327083838361338c565b600073ffffffffffffffffffffffffffffffffffffffff168373ffffffffffffffffffffffffffffffffffffffff1614156132b3576132ae81613391565b6132f2565b8173ffffffffffffffffffffffffffffffffffffffff168373ffffffffffffffffffffffffffffffffffffffff16146132f1576132f083826133da565b5b5b600073ffffffffffffffffffffffffffffffffffffffff168273ffffffffffffffffffffffffffffffffffffffff1614156133355761333081613547565b613374565b8273ffffffffffffffffffffffffffffffffffffffff168273ffffffffffffffffffffffffffffffffffffffff161461337357613372828261368a565b5b5b505050565b600080823b905060008111915050919050565b505050565b6008805490506009600083815260200190815260200160002081905550600881908060018154018082558091505060019003906000526020600020016000909190919091505550565b600060016133e784610f10565b6133f19190614c96565b90506000600760008481526020019081526020016000205490508181146134d6576000600660008673ffffffffffffffffffffffffffffffffffffffff1673ffffffffffffffffffffffffffffffffffffffff168152602001908152602001600020600084815260200190815260200160002054905080600660008773ffffffffffffffffffffffffffffffffffffffff1673ffffffffffffffffffffffffffffffffffffffff168152602001908152602001600020600084815260200190815260200160002081905550816007600083815260200190815260200160002081905550505b6007600084815260200190815260200160002060009055600660008573ffffffffffffffffffffffffffffffffffffffff1673ffffffffffffffffffffffffffffffffffffffff16815260200190815260200160002060008381526020019081526020016000206000905550505050565b6000600160088054905061355b9190614c96565b90506000600960008481526020019081526020016000205490506000600883815481106135b1577f4e487b7100000000000000000000000000000000000000000000000000000000600052603260045260246000fd5b9060005260206000200154905080600883815481106135f9577f4e487b7100000000000000000000000000000000000000000000000000000000600052603260045260246000fd5b90600052602060002001819055508160096000838152602001908152602001600020819055506009600085815260200190815260200160002060009055600880548061366e577f4e487b7100000000000000000000000000000000000000000000000000000000600052603160045260246000fd5b6001900381819060005260206000200160009055905550505050565b600061369583610f10565b905081600660008573ffffffffffffffffffffffffffffffffffffffff1673ffffffffffffffffffffffffffffffffffffffff168152602001908152602001600020600083815260200190815260200160002081905550806007600084815260200190815260200160002081905550505050565b82805461371590614dc9565b90600052602060002090601f016020900481019282613737576000855561377e565b82601f1061375057805160ff191683800117855561377e565b8280016001018555821561377e579182015b8281111561377d578251825591602001919060010190613762565b5b50905061378b919061378f565b5090565b5b808211156137a8576000816000905550600101613790565b5090565b60006137bf6137ba84614ab9565b614a94565b9050828152602081018484840111156137d757600080fd5b6137e2848285614d5d565b509392505050565b60006137fd6137f884614aea565b614a94565b90508281526020810184848401111561381557600080fd5b613820848285614d5d565b509392505050565b60008135905061383781615ad9565b92915050565b60008135905061384c81615af0565b92915050565b60008135905061386181615b07565b92915050565b60008151905061387681615b07565b92915050565b600082601f83011261388d57600080fd5b813561389d8482602086016137ac565b91505092915050565b600082601f8301126138b757600080fd5b81356138c78482602086016137ea565b91505092915050565b6000813590506138df81615b1e565b92915050565b6000602082840312156138f757600080fd5b600061390584828501613828565b91505092915050565b6000806040838503121561392157600080fd5b600061392f85828601613828565b925050602061394085828601613828565b9150509250929050565b60008060006060848603121561395f57600080fd5b600061396d86828701613828565b935050602061397e86828701613828565b925050604061398f868287016138d0565b9150509250925092565b600080600080608085870312156139af57600080fd5b60006139bd87828801613828565b94505060206139ce87828801613828565b93505060406139df878288016138d0565b925050606085013567ffffffffffffffff8111156139fc57600080fd5b613a088782880161387c565b91505092959194509250565b60008060408385031215613a2757600080fd5b6000613a3585828601613828565b9250506020613a468582860161383d565b9150509250929050565b60008060408385031215613a6357600080fd5b6000613a7185828601613828565b9250506020613a82858286016138d0565b9150509250929050565b600060208284031215613a9e57600080fd5b6000613aac84828501613852565b91505092915050565b600060208284031215613ac757600080fd5b6000613ad584828501613867565b91505092915050565b600060208284031215613af057600080fd5b6000613afe848285016138d0565b91505092915050565b60008060008060008060c08789031215613b2057600080fd5b6000613b2e89828a016138d0565b965050602087013567ffffffffffffffff811115613b4b57600080fd5b613b5789828a016138a6565b955050604087013567ffffffffffffffff811115613b7457600080fd5b613b8089828a016138a6565b945050606087013567ffffffffffffffff811115613b9d57600080fd5b613ba989828a016138a6565b935050608087013567ffffffffffffffff811115613bc657600080fd5b613bd289828a016138a6565b92505060a087013567ffffffffffffffff811115613bef57600080fd5b613bfb89828a016138a6565b9150509295509295509295565b60008060408385031215613c1b57600080fd5b6000613c29858286016138d0565b9250506020613c3a858286016138d0565b9150509250929050565b600080600060608486031215613c5957600080fd5b6000613c67868287016138d0565b9350506020613c78868287016138d0565b925050604084013567ffffffffffffffff811115613c9557600080fd5b613ca1868287016138a6565b9150509250925092565b613cb481614cdc565b82525050565b613cc381614cca565b82525050565b613cd281614cee565b82525050565b6000613ce382614b30565b613ced8185614b46565b9350613cfd818560208601614d6c565b613d0681614f62565b840191505092915050565b6000613d1c82614b3b565b613d268185614b62565b9350613d36818560208601614d6c565b613d3f81614f62565b840191505092915050565b6000613d5582614b3b565b613d5f8185614b73565b9350613d6f818560208601614d6c565b80840191505092915050565b60008154613d8881614dc9565b613d928186614b73565b94506001821660008114613dad5760018114613dbe57613df1565b60ff19831686528186019350613df1565b613dc785614b1b565b60005b83811015613de957815481890152600182019150602081019050613dca565b838801955050505b50505092915050565b6000613e07602d83614b73565b9150613e1282614f73565b602d82019050919050565b6000613e2a602983614b73565b9150613e3582614fc2565b602982019050919050565b6000613e4d600983614b73565b9150613e5882615011565b600982019050919050565b6000613e70601683614b62565b9150613e7b8261503a565b602082019050919050565b6000613e93601483614b62565b9150613e9e82615063565b602082019050919050565b6000613eb6602b83614b62565b9150613ec18261508c565b604082019050919050565b6000613ed9600e83614b62565b9150613ee4826150db565b602082019050919050565b6000613efc603283614b62565b9150613f0782615104565b604082019050919050565b6000613f1f604183614b73565b9150613f2a82615153565b604182019050919050565b6000613f42602683614b62565b9150613f4d826151c8565b604082019050919050565b6000613f65601c83614b62565b9150613f7082615217565b602082019050919050565b6000613f88602183614b73565b9150613f9382615240565b602182019050919050565b6000613fab600c83614b73565b9150613fb68261528f565b600c82019050919050565b6000613fce602483614b62565b9150613fd9826152b8565b604082019050919050565b6000613ff1601983614b62565b9150613ffc82615307565b602082019050919050565b6000614014602c83614b62565b915061401f82615330565b604082019050919050565b6000614037602a83614b73565b91506140428261537f565b602a82019050919050565b600061405a600983614b62565b9150614065826153ce565b602082019050919050565b600061407d600183614b73565b9150614088826153f7565b600182019050919050565b60006140a0603883614b62565b91506140ab82615420565b604082019050919050565b60006140c3600483614b73565b91506140ce8261546f565b600482019050919050565b60006140e6602a83614b62565b91506140f182615498565b604082019050919050565b6000614109602983614b62565b9150614114826154e7565b604082019050919050565b600061412c602783614b73565b915061413782615536565b602782019050919050565b600061414f601783614b62565b915061415a82615585565b602082019050919050565b6000614172602e83614b73565b915061417d826155ae565b602e82019050919050565b6000614195602983614b73565b91506141a0826155fd565b602982019050919050565b60006141b8600283614b73565b91506141c38261564c565b600282019050919050565b60006141db600783614b73565b91506141e682615675565b600782019050919050565b60006141fe602083614b62565b91506142098261569e565b602082019050919050565b6000614221600d83614b73565b915061422c826156c7565b600d82019050919050565b6000614244602b83614b73565b915061424f826156f0565b602b82019050919050565b6000614267602c83614b62565b91506142728261573f565b604082019050919050565b600061428a602483614b73565b91506142958261578e565b602482019050919050565b60006142ad601283614b73565b91506142b8826157dd565b601282019050919050565b60006142d0602083614b62565b91506142db82615806565b602082019050919050565b60006142f3602983614b62565b91506142fe8261582f565b604082019050919050565b6000614316600583614b73565b91506143218261587e565b600582019050919050565b6000614339600a83614b62565b9150614344826158a7565b602082019050919050565b600061435c602183614b62565b9150614367826158d0565b604082019050919050565b600061437f602f83614b73565b915061438a8261591f565b602f82019050919050565b60006143a2601d83614b73565b91506143ad8261596e565b601d82019050919050565b60006143c5600083614b57565b91506143d082615997565b600082019050919050565b60006143e8603183614b62565b91506143f38261599a565b604082019050919050565b600061440b602c83614b73565b9150614416826159e9565b602c82019050919050565b600061442e602c83614b62565b915061443982615a38565b604082019050919050565b6000614451600683614b73565b915061445c82615a87565b600682019050919050565b6000614474601a83614b73565b915061447f82615ab0565b601a82019050919050565b61449381614d46565b82525050565b60006144a482613e40565b91506144b08288613d4a565b91506144bb826142a0565b91506144c78287613d4a565b91506144d282614372565b91506144de8286613d4a565b91506144e982613f9e565b91506144f58285613d4a565b915061450082614214565b915061450b82614467565b91506145178284613d4a565b9150614522826141ab565b91508190509695505050505050565b600061453c82613f12565b91506145488284613d4a565b915061455382614444565b915081905092915050565b600061456982613f7b565b9150819050919050565b600061457e8261411f565b915061458a828c613d4a565b9150614595826140b6565b91506145a082614165565b91506145ab82614188565b91506145b7828b613d7b565b91506145c282614070565b91506145ce828a613d7b565b91506145d982614070565b91506145e4826143fe565b91506145f08289613d7b565b91506145fb82613e1d565b91506146078288613d7b565b91506146128261427d565b915061461e8287613d7b565b91506146298261402a565b91506146358286613d4a565b915061464082613dfa565b915061464c8285613d4a565b915061465782614237565b91506146638284613d4a565b915061466e826141ce565b91508190509a9950505050505050505050565b600061468c82614309565b91506146988284613d4a565b915081905092915050565b60006146ae82614395565b91506146ba8284613d4a565b915081905092915050565b60006146d0826143b8565b9150819050919050565b60006020820190506146ef6000830184613cba565b92915050565b600060208201905061470a6000830184613cab565b92915050565b60006080820190506147256000830187613cba565b6147326020830186613cba565b61473f604083018561448a565b81810360608301526147518184613cd8565b905095945050505050565b60006020820190506147716000830184613cc9565b92915050565b600060208201905081810360008301526147918184613d11565b905092915050565b600060208201905081810360008301526147b281613e63565b9050919050565b600060208201905081810360008301526147d281613e86565b9050919050565b600060208201905081810360008301526147f281613ea9565b9050919050565b6000602082019050818103600083015261481281613ecc565b9050919050565b6000602082019050818103600083015261483281613eef565b9050919050565b6000602082019050818103600083015261485281613f35565b9050919050565b6000602082019050818103600083015261487281613f58565b9050919050565b6000602082019050818103600083015261489281613fc1565b9050919050565b600060208201905081810360008301526148b281613fe4565b9050919050565b600060208201905081810360008301526148d281614007565b9050919050565b600060208201905081810360008301526148f28161404d565b9050919050565b6000602082019050818103600083015261491281614093565b9050919050565b60006020820190508181036000830152614932816140d9565b9050919050565b60006020820190508181036000830152614952816140fc565b9050919050565b6000602082019050818103600083015261497281614142565b9050919050565b60006020820190508181036000830152614992816141f1565b9050919050565b600060208201905081810360008301526149b28161425a565b9050919050565b600060208201905081810360008301526149d2816142c3565b9050919050565b600060208201905081810360008301526149f2816142e6565b9050919050565b60006020820190508181036000830152614a128161432c565b9050919050565b60006020820190508181036000830152614a328161434f565b9050919050565b60006020820190508181036000830152614a52816143db565b9050919050565b60006020820190508181036000830152614a7281614421565b9050919050565b6000602082019050614a8e600083018461448a565b92915050565b6000614a9e614aaf565b9050614aaa8282614dfb565b919050565b6000604051905090565b600067ffffffffffffffff821115614ad457614ad3614f33565b5b614add82614f62565b9050602081019050919050565b600067ffffffffffffffff821115614b0557614b04614f33565b5b614b0e82614f62565b9050602081019050919050565b60008190508160005260206000209050919050565b600081519050919050565b600081519050919050565b600082825260208201905092915050565b600081905092915050565b600082825260208201905092915050565b600081905092915050565b6000614b8982614d46565b9150614b9483614d46565b9250827fffffffffffffffffffffffffffffffffffffffffffffffffffffffffffffffff03821115614bc957614bc8614ea6565b5b828201905092915050565b6000614bdf82614d50565b9150614bea83614d50565b92508260ff03821115614c0057614bff614ea6565b5b828201905092915050565b6000614c1682614d46565b9150614c2183614d46565b925082614c3157614c30614ed5565b5b828204905092915050565b6000614c4782614d46565b9150614c5283614d46565b9250817fffffffffffffffffffffffffffffffffffffffffffffffffffffffffffffffff0483118215151615614c8b57614c8a614ea6565b5b828202905092915050565b6000614ca182614d46565b9150614cac83614d46565b925082821015614cbf57614cbe614ea6565b5b828203905092915050565b6000614cd582614d26565b9050919050565b6000614ce782614d26565b9050919050565b60008115159050919050565b60007fffffffff0000000000000000000000000000000000000000000000000000000082169050919050565b600073ffffffffffffffffffffffffffffffffffffffff82169050919050565b6000819050919050565b600060ff82169050919050565b82818337600083830152505050565b60005b83811015614d8a578082015181840152602081019050614d6f565b83811115614d99576000848401525b50505050565b6000614daa82614d46565b91506000821415614dbe57614dbd614ea6565b5b600182039050919050565b60006002820490506001821680614de157607f821691505b60208210811415614df557614df4614f04565b5b50919050565b614e0482614f62565b810181811067ffffffffffffffff82111715614e2357614e22614f33565b5b80604052505050565b6000614e3782614d46565b91507fffffffffffffffffffffffffffffffffffffffffffffffffffffffffffffffff821415614e6a57614e69614ea6565b5b600182019050919050565b6000614e8082614d46565b9150614e8b83614d46565b925082614e9b57614e9a614ed5565b5b828206905092915050565b7f4e487b7100000000000000000000000000000000000000000000000000000000600052601160045260246000fd5b7f4e487b7100000000000000000000000000000000000000000000000000000000600052601260045260246000fd5b7f4e487b7100000000000000000000000000000000000000000000000000000000600052602260045260246000fd5b7f4e487b7100000000000000000000000000000000000000000000000000000000600052604160045260246000fd5b6000601f19601f8301169050919050565b7f3c747370616e20783d2231352220793d22313835223e5345525649434553204460008201527f4f4e453a203c2f747370616e3e00000000000000000000000000000000000000602082015250565b7f3c747370616e20783d2231352220793d22313130223e4348415353495320233a60008201527f203c2f747370616e3e0000000000000000000000000000000000000000000000602082015250565b7f7b226e616d65223a220000000000000000000000000000000000000000000000600082015250565b7f436172205365727669636520636f6d706c657465642100000000000000000000600082015250565b7f796f75206172656e277420746865206f776e6572000000000000000000000000600082015250565b7f455243373231456e756d657261626c653a206f776e657220696e646578206f7560008201527f74206f6620626f756e6473000000000000000000000000000000000000000000602082015250565b7f636f756c64206e6f742073656e64000000000000000000000000000000000000600082015250565b7f4552433732313a207472616e7366657220746f206e6f6e20455243373231526560008201527f63656976657220696d706c656d656e7465720000000000000000000000000000602082015250565b7f3c7376672077696474683d2233303022206865696768743d223330302220786d60008201527f6c6e733d22687474703a2f2f7777772e77332e6f72672f323030302f7376672260208201527f3e00000000000000000000000000000000000000000000000000000000000000604082015250565b7f4f776e61626c653a206e6577206f776e657220697320746865207a65726f206160008201527f6464726573730000000000000000000000000000000000000000000000000000602082015250565b7f4552433732313a20746f6b656e20616c7265616479206d696e74656400000000600082015250565b7f54686973206973204361722043657274696669636174696f6e206f6e4368616960008201527f6e00000000000000000000000000000000000000000000000000000000000000602082015250565b7f222c20226f776e6572223a220000000000000000000000000000000000000000600082015250565b7f4552433732313a207472616e7366657220746f20746865207a65726f2061646460008201527f7265737300000000000000000000000000000000000000000000000000000000602082015250565b7f4552433732313a20617070726f766520746f2063616c6c657200000000000000600082015250565b7f4552433732313a206f70657261746f7220717565727920666f72206e6f6e657860008201527f697374656e7420746f6b656e0000000000000000000000000000000000000000602082015250565b7f3c747370616e20783d2231352220793d22313630223e4b494c4f4d455452455360008201527f3a203c2f747370616e3e00000000000000000000000000000000000000000000602082015250565b7f6e6f742065786973740000000000000000000000000000000000000000000000600082015250565b7f2000000000000000000000000000000000000000000000000000000000000000600082015250565b7f4552433732313a20617070726f76652063616c6c6572206973206e6f74206f7760008201527f6e6572206e6f7220617070726f76656420666f7220616c6c0000000000000000602082015250565b7f22202f3e00000000000000000000000000000000000000000000000000000000600082015250565b7f4552433732313a2062616c616e636520717565727920666f7220746865207a6560008201527f726f206164647265737300000000000000000000000000000000000000000000602082015250565b7f4552433732313a206f776e657220717565727920666f72206e6f6e657869737460008201527f656e7420746f6b656e0000000000000000000000000000000000000000000000602082015250565b7f3c726563742077696474683d223130302522206865696768743d22313030252260008201527f2066696c6c3d2200000000000000000000000000000000000000000000000000602082015250565b7f6b6d2063616e206e6f7420626520646563726561736564000000000000000000600082015250565b7f3c726563742077696474683d2239392522206865696768743d2239392522206660008201527f696c6c3d22626c61636b22202f3e000000000000000000000000000000000000602082015250565b7f3c7465787420783d2231352220793d22333022207374796c653d2266696c6c3a60008201527f77686974653b223e200000000000000000000000000000000000000000000000602082015250565b7f227d000000000000000000000000000000000000000000000000000000000000600082015250565b7f3c2f746578743e00000000000000000000000000000000000000000000000000600082015250565b7f4552433732313a206d696e7420746f20746865207a65726f2061646472657373600082015250565b7f222c2022696d616765223a202200000000000000000000000000000000000000600082015250565b7f3c747370616e20783d2231352220793d22323130223e50415354204f574e455260008201527f533a203c2f747370616e3e000000000000000000000000000000000000000000602082015250565b7f4552433732313a20617070726f76656420717565727920666f72206e6f6e657860008201527f697374656e7420746f6b656e0000000000000000000000000000000000000000602082015250565b7f3c747370616e20783d2231352220793d22313335223e594541523a203c2f747360008201527f70616e3e00000000000000000000000000000000000000000000000000000000602082015250565b7f222c20226465736372697074696f6e223a220000000000000000000000000000600082015250565b7f4f776e61626c653a2063616c6c6572206973206e6f7420746865206f776e6572600082015250565b7f4552433732313a207472616e73666572206f6620746f6b656e2074686174206960008201527f73206e6f74206f776e0000000000000000000000000000000000000000000000602082015250565b7f4343432023000000000000000000000000000000000000000000000000000000600082015250565b7f4e4f5420454e4f55474800000000000000000000000000000000000000000000600082015250565b7f4552433732313a20617070726f76616c20746f2063757272656e74206f776e6560008201527f7200000000000000000000000000000000000000000000000000000000000000602082015250565b7f222c202265787465726e616c5f75726c223a2268747470733a2f2f6275726e7960008201527f626f79732e636f6d2f746f6b656e2f0000000000000000000000000000000000602082015250565b7f646174613a6170706c69636174696f6e2f6a736f6e3b6261736536342c000000600082015250565b50565b7f4552433732313a207472616e736665722063616c6c6572206973206e6f74206f60008201527f776e6572206e6f7220617070726f766564000000000000000000000000000000602082015250565b7f3c747370616e20783d2231352220793d223835223e4c4943454e534520504c4160008201527f54453a203c2f747370616e3e0000000000000000000000000000000000000000602082015250565b7f455243373231456e756d657261626c653a20676c6f62616c20696e646578206f60008201527f7574206f6620626f756e64730000000000000000000000000000000000000000602082015250565b7f3c2f7376673e0000000000000000000000000000000000000000000000000000600082015250565b7f646174613a696d6167652f7376672b786d6c3b6261736536342c000000000000600082015250565b615ae281614cca565b8114615aed57600080fd5b50565b615af981614cee565b8114615b0457600080fd5b50565b615b1081614cfa565b8114615b1b57600080fd5b50565b615b2781614d46565b8114615b3257600080fd5b5056fe4142434445464748494a4b4c4d4e4f505152535455565758595a6162636465666768696a6b6c6d6e6f707172737475767778797a303132333435363738392b2fa26469706673582212209e8f593b31fe6ca437389cb074125400ca4171832b69283cc912d872f61b08c964736f6c63430008040033",
  "devdoc": {
    "kind": "dev",
    "methods": {
      "approve(address,uint256)": {
        "details": "See {IERC721-approve}."
      },
      "balanceOf(address)": {
        "details": "See {IERC721-balanceOf}."
      },
      "getApproved(uint256)": {
        "details": "See {IERC721-getApproved}."
      },
      "isApprovedForAll(address,address)": {
        "details": "See {IERC721-isApprovedForAll}."
      },
      "name()": {
        "details": "See {IERC721Metadata-name}."
      },
      "owner()": {
        "details": "Returns the address of the current owner."
      },
      "ownerOf(uint256)": {
        "details": "See {IERC721-ownerOf}."
      },
      "renounceOwnership()": {
        "details": "Leaves the contract without owner. It will not be possible to call `onlyOwner` functions anymore. Can only be called by the current owner. NOTE: Renouncing ownership will leave the contract without an owner, thereby removing any functionality that is only available to the owner."
      },
      "safeTransferFrom(address,address,uint256)": {
        "details": "See {IERC721-safeTransferFrom}."
      },
      "safeTransferFrom(address,address,uint256,bytes)": {
        "details": "See {IERC721-safeTransferFrom}."
      },
      "setApprovalForAll(address,bool)": {
        "details": "See {IERC721-setApprovalForAll}."
      },
      "supportsInterface(bytes4)": {
        "details": "See {IERC165-supportsInterface}."
      },
      "symbol()": {
        "details": "See {IERC721Metadata-symbol}."
      },
      "tokenByIndex(uint256)": {
        "details": "See {IERC721Enumerable-tokenByIndex}."
      },
      "tokenOfOwnerByIndex(address,uint256)": {
        "details": "See {IERC721Enumerable-tokenOfOwnerByIndex}."
      },
      "totalSupply()": {
        "details": "See {IERC721Enumerable-totalSupply}."
      },
      "transferFrom(address,address,uint256)": {
        "details": "See {IERC721-transferFrom}."
      },
      "transferOwnership(address)": {
        "details": "Transfers ownership of the contract to a new account (`newOwner`). Can only be called by the current owner."
      }
    },
    "version": 1
  },
  "userdoc": {
    "kind": "user",
    "methods": {},
    "version": 1
  },
  "storageLayout": {
    "storage": [
      {
        "astId": 129,
        "contract": "contracts/YourCollectible.sol:YourCollectible",
        "label": "_name",
        "offset": 0,
        "slot": "0",
        "type": "t_string_storage"
      },
      {
        "astId": 131,
        "contract": "contracts/YourCollectible.sol:YourCollectible",
        "label": "_symbol",
        "offset": 0,
        "slot": "1",
        "type": "t_string_storage"
      },
      {
        "astId": 135,
        "contract": "contracts/YourCollectible.sol:YourCollectible",
        "label": "_owners",
        "offset": 0,
        "slot": "2",
        "type": "t_mapping(t_uint256,t_address)"
      },
      {
        "astId": 139,
        "contract": "contracts/YourCollectible.sol:YourCollectible",
        "label": "_balances",
        "offset": 0,
        "slot": "3",
        "type": "t_mapping(t_address,t_uint256)"
      },
      {
        "astId": 143,
        "contract": "contracts/YourCollectible.sol:YourCollectible",
        "label": "_tokenApprovals",
        "offset": 0,
        "slot": "4",
        "type": "t_mapping(t_uint256,t_address)"
      },
      {
        "astId": 149,
        "contract": "contracts/YourCollectible.sol:YourCollectible",
        "label": "_operatorApprovals",
        "offset": 0,
        "slot": "5",
        "type": "t_mapping(t_address,t_mapping(t_address,t_bool))"
      },
      {
        "astId": 1068,
        "contract": "contracts/YourCollectible.sol:YourCollectible",
        "label": "_ownedTokens",
        "offset": 0,
        "slot": "6",
        "type": "t_mapping(t_address,t_mapping(t_uint256,t_uint256))"
      },
      {
        "astId": 1072,
        "contract": "contracts/YourCollectible.sol:YourCollectible",
        "label": "_ownedTokensIndex",
        "offset": 0,
        "slot": "7",
        "type": "t_mapping(t_uint256,t_uint256)"
      },
      {
        "astId": 1075,
        "contract": "contracts/YourCollectible.sol:YourCollectible",
        "label": "_allTokens",
        "offset": 0,
        "slot": "8",
        "type": "t_array(t_uint256)dyn_storage"
      },
      {
        "astId": 1079,
        "contract": "contracts/YourCollectible.sol:YourCollectible",
        "label": "_allTokensIndex",
        "offset": 0,
        "slot": "9",
        "type": "t_mapping(t_uint256,t_uint256)"
      },
      {
        "astId": 7,
        "contract": "contracts/YourCollectible.sol:YourCollectible",
        "label": "_owner",
        "offset": 0,
        "slot": "10",
        "type": "t_address"
      },
      {
        "astId": 2295,
        "contract": "contracts/YourCollectible.sol:YourCollectible",
        "label": "_tokenIds",
        "offset": 0,
        "slot": "11",
        "type": "t_struct(Counter)1774_storage"
      },
      {
        "astId": 2304,
        "contract": "contracts/YourCollectible.sol:YourCollectible",
        "label": "price",
        "offset": 0,
        "slot": "12",
        "type": "t_uint256"
      },
      {
        "astId": 2308,
        "contract": "contracts/YourCollectible.sol:YourCollectible",
        "label": "license_plate",
        "offset": 0,
        "slot": "13",
        "type": "t_mapping(t_uint256,t_string_storage)"
      },
      {
        "astId": 2312,
        "contract": "contracts/YourCollectible.sol:YourCollectible",
        "label": "km",
        "offset": 0,
        "slot": "14",
        "type": "t_mapping(t_uint256,t_uint256)"
      },
      {
        "astId": 2316,
        "contract": "contracts/YourCollectible.sol:YourCollectible",
        "label": "car_services_done",
        "offset": 0,
        "slot": "15",
        "type": "t_mapping(t_uint256,t_uint256)"
      },
      {
        "astId": 2322,
        "contract": "contracts/YourCollectible.sol:YourCollectible",
        "label": "km4service",
        "offset": 0,
        "slot": "16",
        "type": "t_mapping(t_uint256,t_mapping(t_uint256,t_uint256))"
      },
      {
        "astId": 2328,
        "contract": "contracts/YourCollectible.sol:YourCollectible",
        "label": "note4service",
        "offset": 0,
        "slot": "17",
        "type": "t_mapping(t_uint256,t_mapping(t_uint256,t_string_storage))"
      },
      {
        "astId": 2332,
        "contract": "contracts/YourCollectible.sol:YourCollectible",
        "label": "chassis_number",
        "offset": 0,
        "slot": "18",
        "type": "t_mapping(t_uint256,t_string_storage)"
      },
      {
        "astId": 2336,
        "contract": "contracts/YourCollectible.sol:YourCollectible",
        "label": "manufacturer",
        "offset": 0,
        "slot": "19",
        "type": "t_mapping(t_uint256,t_string_storage)"
      },
      {
        "astId": 2340,
        "contract": "contracts/YourCollectible.sol:YourCollectible",
        "label": "model",
        "offset": 0,
        "slot": "20",
        "type": "t_mapping(t_uint256,t_string_storage)"
      },
      {
        "astId": 2344,
        "contract": "contracts/YourCollectible.sol:YourCollectible",
        "label": "production_year",
        "offset": 0,
        "slot": "21",
        "type": "t_mapping(t_uint256,t_string_storage)"
      },
      {
        "astId": 2348,
        "contract": "contracts/YourCollectible.sol:YourCollectible",
        "label": "past_owners",
        "offset": 0,
        "slot": "22",
        "type": "t_mapping(t_uint256,t_uint256)"
      }
    ],
    "types": {
      "t_address": {
        "encoding": "inplace",
        "label": "address",
        "numberOfBytes": "20"
      },
      "t_array(t_uint256)dyn_storage": {
        "base": "t_uint256",
        "encoding": "dynamic_array",
        "label": "uint256[]",
        "numberOfBytes": "32"
      },
      "t_bool": {
        "encoding": "inplace",
        "label": "bool",
        "numberOfBytes": "1"
      },
      "t_mapping(t_address,t_bool)": {
        "encoding": "mapping",
        "key": "t_address",
        "label": "mapping(address => bool)",
        "numberOfBytes": "32",
        "value": "t_bool"
      },
      "t_mapping(t_address,t_mapping(t_address,t_bool))": {
        "encoding": "mapping",
        "key": "t_address",
        "label": "mapping(address => mapping(address => bool))",
        "numberOfBytes": "32",
        "value": "t_mapping(t_address,t_bool)"
      },
      "t_mapping(t_address,t_mapping(t_uint256,t_uint256))": {
        "encoding": "mapping",
        "key": "t_address",
        "label": "mapping(address => mapping(uint256 => uint256))",
        "numberOfBytes": "32",
        "value": "t_mapping(t_uint256,t_uint256)"
      },
      "t_mapping(t_address,t_uint256)": {
        "encoding": "mapping",
        "key": "t_address",
        "label": "mapping(address => uint256)",
        "numberOfBytes": "32",
        "value": "t_uint256"
      },
      "t_mapping(t_uint256,t_address)": {
        "encoding": "mapping",
        "key": "t_uint256",
        "label": "mapping(uint256 => address)",
        "numberOfBytes": "32",
        "value": "t_address"
      },
      "t_mapping(t_uint256,t_mapping(t_uint256,t_string_storage))": {
        "encoding": "mapping",
        "key": "t_uint256",
        "label": "mapping(uint256 => mapping(uint256 => string))",
        "numberOfBytes": "32",
        "value": "t_mapping(t_uint256,t_string_storage)"
      },
      "t_mapping(t_uint256,t_mapping(t_uint256,t_uint256))": {
        "encoding": "mapping",
        "key": "t_uint256",
        "label": "mapping(uint256 => mapping(uint256 => uint256))",
        "numberOfBytes": "32",
        "value": "t_mapping(t_uint256,t_uint256)"
      },
      "t_mapping(t_uint256,t_string_storage)": {
        "encoding": "mapping",
        "key": "t_uint256",
        "label": "mapping(uint256 => string)",
        "numberOfBytes": "32",
        "value": "t_string_storage"
      },
      "t_mapping(t_uint256,t_uint256)": {
        "encoding": "mapping",
        "key": "t_uint256",
        "label": "mapping(uint256 => uint256)",
        "numberOfBytes": "32",
        "value": "t_uint256"
      },
      "t_string_storage": {
        "encoding": "bytes",
        "label": "string",
        "numberOfBytes": "32"
      },
      "t_struct(Counter)1774_storage": {
        "encoding": "inplace",
        "label": "struct Counters.Counter",
        "members": [
          {
            "astId": 1773,
            "contract": "contracts/YourCollectible.sol:YourCollectible",
            "label": "_value",
            "offset": 0,
            "slot": "0",
            "type": "t_uint256"
          }
        ],
        "numberOfBytes": "32"
      },
      "t_uint256": {
        "encoding": "inplace",
        "label": "uint256",
        "numberOfBytes": "32"
      }
    }
  }
}