{
  "address": "0xBe0d71BBC6639C7C0FFD939BA33f4cD109f4C0dA",
  "abi": [
    {
      "inputs": [],
      "stateMutability": "nonpayable",
      "type": "constructor"
    },
    {
      "anonymous": false,
      "inputs": [
        {
          "indexed": true,
          "internalType": "address",
          "name": "owner",
          "type": "address"
        },
        {
          "indexed": true,
          "internalType": "address",
          "name": "approved",
          "type": "address"
        },
        {
          "indexed": true,
          "internalType": "uint256",
          "name": "tokenId",
          "type": "uint256"
        }
      ],
      "name": "Approval",
      "type": "event"
    },
    {
      "anonymous": false,
      "inputs": [
        {
          "indexed": true,
          "internalType": "address",
          "name": "owner",
          "type": "address"
        },
        {
          "indexed": true,
          "internalType": "address",
          "name": "operator",
          "type": "address"
        },
        {
          "indexed": false,
          "internalType": "bool",
          "name": "approved",
          "type": "bool"
        }
      ],
      "name": "ApprovalForAll",
      "type": "event"
    },
    {
      "anonymous": false,
      "inputs": [
        {
          "indexed": true,
          "internalType": "address",
          "name": "previousOwner",
          "type": "address"
        },
        {
          "indexed": true,
          "internalType": "address",
          "name": "newOwner",
          "type": "address"
        }
      ],
      "name": "OwnershipTransferred",
      "type": "event"
    },
    {
      "anonymous": false,
      "inputs": [
        {
          "indexed": true,
          "internalType": "address",
          "name": "from",
          "type": "address"
        },
        {
          "indexed": true,
          "internalType": "address",
          "name": "to",
          "type": "address"
        },
        {
          "indexed": true,
          "internalType": "uint256",
          "name": "tokenId",
          "type": "uint256"
        }
      ],
      "name": "Transfer",
      "type": "event"
    },
    {
      "inputs": [
        {
          "internalType": "address",
          "name": "to",
          "type": "address"
        },
        {
          "internalType": "uint256",
          "name": "tokenId",
          "type": "uint256"
        }
      ],
      "name": "approve",
      "outputs": [],
      "stateMutability": "nonpayable",
      "type": "function"
    },
    {
      "inputs": [
        {
          "internalType": "address",
          "name": "owner",
          "type": "address"
        }
      ],
      "name": "balanceOf",
      "outputs": [
        {
          "internalType": "uint256",
          "name": "",
          "type": "uint256"
        }
      ],
      "stateMutability": "view",
      "type": "function"
    },
    {
      "inputs": [
        {
          "internalType": "uint256",
          "name": "",
          "type": "uint256"
        }
      ],
      "name": "chubbiness",
      "outputs": [
        {
          "internalType": "uint256",
          "name": "",
          "type": "uint256"
        }
      ],
      "stateMutability": "view",
      "type": "function"
    },
    {
      "inputs": [
        {
          "internalType": "uint256",
          "name": "",
          "type": "uint256"
        }
      ],
      "name": "color",
      "outputs": [
        {
          "internalType": "bytes3",
          "name": "",
          "type": "bytes3"
        }
      ],
      "stateMutability": "view",
      "type": "function"
    },
    {
      "inputs": [],
      "name": "curve",
      "outputs": [
        {
          "internalType": "uint256",
          "name": "",
          "type": "uint256"
        }
      ],
      "stateMutability": "view",
      "type": "function"
    },
    {
      "inputs": [
        {
          "internalType": "uint256",
          "name": "",
          "type": "uint256"
        }
      ],
      "name": "eyeColor",
      "outputs": [
        {
          "internalType": "bytes3",
          "name": "",
          "type": "bytes3"
        }
      ],
      "stateMutability": "view",
      "type": "function"
    },
    {
      "inputs": [
        {
          "internalType": "uint256",
          "name": "tokenId",
          "type": "uint256"
        }
      ],
      "name": "getApproved",
      "outputs": [
        {
          "internalType": "address",
          "name": "",
          "type": "address"
        }
      ],
      "stateMutability": "view",
      "type": "function"
    },
    {
      "inputs": [
        {
          "internalType": "address",
          "name": "owner",
          "type": "address"
        },
        {
          "internalType": "address",
          "name": "operator",
          "type": "address"
        }
      ],
      "name": "isApprovedForAll",
      "outputs": [
        {
          "internalType": "bool",
          "name": "",
          "type": "bool"
        }
      ],
      "stateMutability": "view",
      "type": "function"
    },
    {
      "inputs": [],
      "name": "limit",
      "outputs": [
        {
          "internalType": "uint256",
          "name": "",
          "type": "uint256"
        }
      ],
      "stateMutability": "view",
      "type": "function"
    },
    {
      "inputs": [],
      "name": "mintItem",
      "outputs": [
        {
          "internalType": "uint256",
          "name": "",
          "type": "uint256"
        }
      ],
      "stateMutability": "payable",
      "type": "function"
    },
    {
      "inputs": [
        {
          "internalType": "uint256",
          "name": "",
          "type": "uint256"
        }
      ],
      "name": "mouthLength",
      "outputs": [
        {
          "internalType": "uint256",
          "name": "",
          "type": "uint256"
        }
      ],
      "stateMutability": "view",
      "type": "function"
    },
    {
      "inputs": [],
      "name": "name",
      "outputs": [
        {
          "internalType": "string",
          "name": "",
          "type": "string"
        }
      ],
      "stateMutability": "view",
      "type": "function"
    },
    {
      "inputs": [],
      "name": "owner",
      "outputs": [
        {
          "internalType": "address",
          "name": "",
          "type": "address"
        }
      ],
      "stateMutability": "view",
      "type": "function"
    },
    {
      "inputs": [
        {
          "internalType": "uint256",
          "name": "tokenId",
          "type": "uint256"
        }
      ],
      "name": "ownerOf",
      "outputs": [
        {
          "internalType": "address",
          "name": "",
          "type": "address"
        }
      ],
      "stateMutability": "view",
      "type": "function"
    },
    {
      "inputs": [],
      "name": "price",
      "outputs": [
        {
          "internalType": "uint256",
          "name": "",
          "type": "uint256"
        }
      ],
      "stateMutability": "view",
      "type": "function"
    },
    {
      "inputs": [],
      "name": "recipient",
      "outputs": [
        {
          "internalType": "address payable",
          "name": "",
          "type": "address"
        }
      ],
      "stateMutability": "view",
      "type": "function"
    },
    {
      "inputs": [
        {
          "internalType": "uint256",
          "name": "id",
          "type": "uint256"
        }
      ],
      "name": "renderTokenById",
      "outputs": [
        {
          "internalType": "string",
          "name": "",
          "type": "string"
        }
      ],
      "stateMutability": "view",
      "type": "function"
    },
    {
      "inputs": [],
      "name": "renounceOwnership",
      "outputs": [],
      "stateMutability": "nonpayable",
      "type": "function"
    },
    {
      "inputs": [
        {
          "internalType": "address",
          "name": "from",
          "type": "address"
        },
        {
          "internalType": "address",
          "name": "to",
          "type": "address"
        },
        {
          "internalType": "uint256",
          "name": "tokenId",
          "type": "uint256"
        }
      ],
      "name": "safeTransferFrom",
      "outputs": [],
      "stateMutability": "nonpayable",
      "type": "function"
    },
    {
      "inputs": [
        {
          "internalType": "address",
          "name": "from",
          "type": "address"
        },
        {
          "internalType": "address",
          "name": "to",
          "type": "address"
        },
        {
          "internalType": "uint256",
          "name": "tokenId",
          "type": "uint256"
        },
        {
          "internalType": "bytes",
          "name": "_data",
          "type": "bytes"
        }
      ],
      "name": "safeTransferFrom",
      "outputs": [],
      "stateMutability": "nonpayable",
      "type": "function"
    },
    {
      "inputs": [
        {
          "internalType": "address",
          "name": "operator",
          "type": "address"
        },
        {
          "internalType": "bool",
          "name": "approved",
          "type": "bool"
        }
      ],
      "name": "setApprovalForAll",
      "outputs": [],
      "stateMutability": "nonpayable",
      "type": "function"
    },
    {
      "inputs": [
        {
          "internalType": "bytes4",
          "name": "interfaceId",
          "type": "bytes4"
        }
      ],
      "name": "supportsInterface",
      "outputs": [
        {
          "internalType": "bool",
          "name": "",
          "type": "bool"
        }
      ],
      "stateMutability": "view",
      "type": "function"
    },
    {
      "inputs": [],
      "name": "symbol",
      "outputs": [
        {
          "internalType": "string",
          "name": "",
          "type": "string"
        }
      ],
      "stateMutability": "view",
      "type": "function"
    },
    {
      "inputs": [
        {
          "internalType": "uint256",
          "name": "index",
          "type": "uint256"
        }
      ],
      "name": "tokenByIndex",
      "outputs": [
        {
          "internalType": "uint256",
          "name": "",
          "type": "uint256"
        }
      ],
      "stateMutability": "view",
      "type": "function"
    },
    {
      "inputs": [
        {
          "internalType": "address",
          "name": "owner",
          "type": "address"
        },
        {
          "internalType": "uint256",
          "name": "index",
          "type": "uint256"
        }
      ],
      "name": "tokenOfOwnerByIndex",
      "outputs": [
        {
          "internalType": "uint256",
          "name": "",
          "type": "uint256"
        }
      ],
      "stateMutability": "view",
      "type": "function"
    },
    {
      "inputs": [
        {
          "internalType": "uint256",
          "name": "id",
          "type": "uint256"
        }
      ],
      "name": "tokenURI",
      "outputs": [
        {
          "internalType": "string",
          "name": "",
          "type": "string"
        }
      ],
      "stateMutability": "view",
      "type": "function"
    },
    {
      "inputs": [],
      "name": "totalSupply",
      "outputs": [
        {
          "internalType": "uint256",
          "name": "",
          "type": "uint256"
        }
      ],
      "stateMutability": "view",
      "type": "function"
    },
    {
      "inputs": [
        {
          "internalType": "address",
          "name": "from",
          "type": "address"
        },
        {
          "internalType": "address",
          "name": "to",
          "type": "address"
        },
        {
          "internalType": "uint256",
          "name": "tokenId",
          "type": "uint256"
        }
      ],
      "name": "transferFrom",
      "outputs": [],
      "stateMutability": "nonpayable",
      "type": "function"
    },
    {
      "inputs": [
        {
          "internalType": "address",
          "name": "newOwner",
          "type": "address"
        }
      ],
      "name": "transferOwnership",
      "outputs": [],
      "stateMutability": "nonpayable",
      "type": "function"
    }
  ],
  "transactionHash": "0xd45be8841c203e8eb48b620cbbbe9d549a6a0ef04f107461ea5567d98a5c2607",
  "args": [],
  "solcInputHash": "995da0bbd53bc8a535cc4b4b30d82057",
  "bytecode": "0x608060405266038d7ea4c68000600c553480156200001c57600080fd5b506040518060400160405280601581526020017f48657465726f6368726f6d6963204c6f6f6769657300000000000000000000008152506040518060400160405280600681526020017f4f504c4f4f4700000000000000000000000000000000000000000000000000008152508160009080519060200190620000a1929190620001b1565b508060019080519060200190620000ba929190620001b1565b505050620000dd620000d1620000e360201b60201c565b620000eb60201b60201c565b620002c6565b600033905090565b6000600a60009054906101000a900473ffffffffffffffffffffffffffffffffffffffff16905081600a60006101000a81548173ffffffffffffffffffffffffffffffffffffffff021916908373ffffffffffffffffffffffffffffffffffffffff1602179055508173ffffffffffffffffffffffffffffffffffffffff168173ffffffffffffffffffffffffffffffffffffffff167f8be0079c531659141344cd1fd0a4f28419497f9722a3daafe3b4186f6b6457e060405160405180910390a35050565b828054620001bf9062000261565b90600052602060002090601f016020900481019282620001e357600085556200022f565b82601f10620001fe57805160ff19168380011785556200022f565b828001600101855582156200022f579182015b828111156200022e57825182559160200191906001019062000211565b5b5090506200023e919062000242565b5090565b5b808211156200025d57600081600090555060010162000243565b5090565b600060028204905060018216806200027a57607f821691505b6020821081141562000291576200029062000297565b5b50919050565b7f4e487b7100000000000000000000000000000000000000000000000000000000600052602260045260246000fd5b615fa280620002d66000396000f3fe6080604052600436106101c25760003560e01c80637165485d116100f7578063a4d66daf11610095578063e985e9c511610064578063e985e9c5146106a2578063eb93406b146106df578063f2fde38b146106fd578063faa204e114610726576101c2565b8063a4d66daf146105d4578063b88d4fde146105ff578063c87b56dd14610628578063d4e28c9c14610665576101c2565b8063969e4b8d116100d1578063969e4b8d14610506578063a035b1fe14610543578063a22cb4651461056e578063a2d6c6da14610597576101c2565b80637165485d146104855780638da5cb5b146104b057806395d89b41146104db576101c2565b80633f4f8561116101645780636352211e1161013e5780636352211e146103c957806366d003ac1461040657806370a0823114610431578063715018a61461046e576101c2565b80633f4f85611461032657806342842e0e146103635780634f6ccce71461038c576101c2565b8063095ea7b3116101a0578063095ea7b31461026c57806318160ddd1461029557806323b872dd146102c05780632f745c59146102e9576101c2565b806301ffc9a7146101c757806306fdde0314610204578063081812fc1461022f575b600080fd5b3480156101d357600080fd5b506101ee60048036038101906101e99190613b35565b610763565b6040516101fb91906148cb565b60405180910390f35b34801561021057600080fd5b506102196107dd565b6040516102269190614901565b60405180910390f35b34801561023b57600080fd5b5061025660048036038101906102519190613b87565b61086f565b6040516102639190614849565b60405180910390f35b34801561027857600080fd5b50610293600480360381019061028e9190613af9565b6108f4565b005b3480156102a157600080fd5b506102aa610a0c565b6040516102b79190614bc3565b60405180910390f35b3480156102cc57600080fd5b506102e760048036038101906102e291906139f3565b610a19565b005b3480156102f557600080fd5b50610310600480360381019061030b9190613af9565b610a79565b60405161031d9190614bc3565b60405180910390f35b34801561033257600080fd5b5061034d60048036038101906103489190613b87565b610b1e565b60405161035a9190614bc3565b60405180910390f35b34801561036f57600080fd5b5061038a600480360381019061038591906139f3565b610b36565b005b34801561039857600080fd5b506103b360048036038101906103ae9190613b87565b610b56565b6040516103c09190614bc3565b60405180910390f35b3480156103d557600080fd5b506103f060048036038101906103eb9190613b87565b610bed565b6040516103fd9190614849565b60405180910390f35b34801561041257600080fd5b5061041b610c9f565b6040516104289190614864565b60405180910390f35b34801561043d57600080fd5b506104586004803603810190610453919061398e565b610cb7565b6040516104659190614bc3565b60405180910390f35b34801561047a57600080fd5b50610483610d6f565b005b34801561049157600080fd5b5061049a610df7565b6040516104a79190614bc3565b60405180910390f35b3480156104bc57600080fd5b506104c5610dfd565b6040516104d29190614849565b60405180910390f35b3480156104e757600080fd5b506104f0610e27565b6040516104fd9190614901565b60405180910390f35b34801561051257600080fd5b5061052d60048036038101906105289190613b87565b610eb9565b60405161053a91906148e6565b60405180910390f35b34801561054f57600080fd5b50610558610ed9565b6040516105659190614bc3565b60405180910390f35b34801561057a57600080fd5b5061059560048036038101906105909190613abd565b610edf565b005b3480156105a357600080fd5b506105be60048036038101906105b99190613b87565b611060565b6040516105cb9190614901565b60405180910390f35b3480156105e057600080fd5b506105e961119d565b6040516105f69190614bc3565b60405180910390f35b34801561060b57600080fd5b5061062660048036038101906106219190613a42565b6111a3565b005b34801561063457600080fd5b5061064f600480360381019061064a9190613b87565b611205565b60405161065c9190614901565b60405180910390f35b34801561067157600080fd5b5061068c60048036038101906106879190613b87565b61144c565b60405161069991906148e6565b60405180910390f35b3480156106ae57600080fd5b506106c960048036038101906106c491906139b7565b61146c565b6040516106d691906148cb565b60405180910390f35b6106e7611500565b6040516106f49190614bc3565b60405180910390f35b34801561070957600080fd5b50610724600480360381019061071f919061398e565b611ba0565b005b34801561073257600080fd5b5061074d60048036038101906107489190613b87565b611c98565b60405161075a9190614bc3565b60405180910390f35b60007f780e9d63000000000000000000000000000000000000000000000000000000007bffffffffffffffffffffffffffffffffffffffffffffffffffffffff1916827bffffffffffffffffffffffffffffffffffffffffffffffffffffffff191614806107d657506107d582611cb0565b5b9050919050565b6060600080546107ec90614f03565b80601f016020809104026020016040519081016040528092919081815260200182805461081890614f03565b80156108655780601f1061083a57610100808354040283529160200191610865565b820191906000526020600020905b81548152906001019060200180831161084857829003601f168201915b5050505050905090565b600061087a82611d92565b6108b9576040517f08c379a00000000000000000000000000000000000000000000000000000000081526004016108b090614ae3565b60405180910390fd5b6004600083815260200190815260200160002060009054906101000a900473ffffffffffffffffffffffffffffffffffffffff169050919050565b60006108ff82610bed565b90508073ffffffffffffffffffffffffffffffffffffffff168373ffffffffffffffffffffffffffffffffffffffff161415610970576040517f08c379a000000000000000000000000000000000000000000000000000000000815260040161096790614b63565b60405180910390fd5b8073ffffffffffffffffffffffffffffffffffffffff1661098f611dfe565b73ffffffffffffffffffffffffffffffffffffffff1614806109be57506109bd816109b8611dfe565b61146c565b5b6109fd576040517f08c379a00000000000000000000000000000000000000000000000000000000081526004016109f490614a63565b60405180910390fd5b610a078383611e06565b505050565b6000600880549050905090565b610a2a610a24611dfe565b82611ebf565b610a69576040517f08c379a0000000000000000000000000000000000000000000000000000000008152600401610a6090614b83565b60405180910390fd5b610a74838383611f9d565b505050565b6000610a8483610cb7565b8210610ac5576040517f08c379a0000000000000000000000000000000000000000000000000000000008152600401610abc90614923565b60405180910390fd5b600660008473ffffffffffffffffffffffffffffffffffffffff1673ffffffffffffffffffffffffffffffffffffffff168152602001908152602001600020600083815260200190815260200160002054905092915050565b60106020528060005260406000206000915090505481565b610b51838383604051806020016040528060008152506111a3565b505050565b6000610b60610a0c565b8210610ba1576040517f08c379a0000000000000000000000000000000000000000000000000000000008152600401610b9890614ba3565b60405180910390fd5b60088281548110610bdb577f4e487b7100000000000000000000000000000000000000000000000000000000600052603260045260246000fd5b90600052602060002001549050919050565b6000806002600084815260200190815260200160002060009054906101000a900473ffffffffffffffffffffffffffffffffffffffff169050600073ffffffffffffffffffffffffffffffffffffffff168173ffffffffffffffffffffffffffffffffffffffff161415610c96576040517f08c379a0000000000000000000000000000000000000000000000000000000008152600401610c8d90614aa3565b60405180910390fd5b80915050919050565b73a81a6a910fed20374361b35c451a4a44f86ced4681565b60008073ffffffffffffffffffffffffffffffffffffffff168273ffffffffffffffffffffffffffffffffffffffff161415610d28576040517f08c379a0000000000000000000000000000000000000000000000000000000008152600401610d1f90614a83565b60405180910390fd5b600360008373ffffffffffffffffffffffffffffffffffffffff1673ffffffffffffffffffffffffffffffffffffffff168152602001908152602001600020549050919050565b610d77611dfe565b73ffffffffffffffffffffffffffffffffffffffff16610d95610dfd565b73ffffffffffffffffffffffffffffffffffffffff1614610deb576040517f08c379a0000000000000000000000000000000000000000000000000000000008152600401610de290614b03565b60405180910390fd5b610df56000612198565b565b6103ea81565b6000600a60009054906101000a900473ffffffffffffffffffffffffffffffffffffffff16905090565b606060018054610e3690614f03565b80601f0160208091040260200160405190810160405280929190818152602001828054610e6290614f03565b8015610eaf5780601f10610e8457610100808354040283529160200191610eaf565b820191906000526020600020905b815481529060010190602001808311610e9257829003601f168201915b5050505050905090565b600e6020528060005260406000206000915054906101000a900460e81b81565b600c5481565b610ee7611dfe565b73ffffffffffffffffffffffffffffffffffffffff168273ffffffffffffffffffffffffffffffffffffffff161415610f55576040517f08c379a0000000000000000000000000000000000000000000000000000000008152600401610f4c90614a03565b60405180910390fd5b8060056000610f62611dfe565b73ffffffffffffffffffffffffffffffffffffffff1673ffffffffffffffffffffffffffffffffffffffff16815260200190815260200160002060008473ffffffffffffffffffffffffffffffffffffffff1673ffffffffffffffffffffffffffffffffffffffff16815260200190815260200160002060006101000a81548160ff0219169083151502179055508173ffffffffffffffffffffffffffffffffffffffff1661100f611dfe565b73ffffffffffffffffffffffffffffffffffffffff167f17307eab39ab6107e8899845ad3d59bd9653f200f220920489ca2b5937696c318360405161105491906148cb565b60405180910390a35050565b606060006110ad600d600085815260200190815260200160002060009054906101000a900460e81b7cffffffffffffffffffffffffffffffffffffffffffffffffffffffffff191661225e565b6110c9600f60008681526020019081526020016000205461255f565b611112600e600087815260200190815260200160002060009054906101000a900460e81b7cffffffffffffffffffffffffffffffffffffffffffffffffffffffffff191661225e565b611153600b600f60008981526020019081526020016000205460096111379190614d40565b61032a6111449190614d9a565b61114e9190614d0f565b61255f565b61116f601060008981526020019081526020016000205461255f565b60405160200161118395949392919061456b565b604051602081830303815290604052905080915050919050565b610e9081565b6111b46111ae611dfe565b83611ebf565b6111f3576040517f08c379a00000000000000000000000000000000000000000000000000000000081526004016111ea90614b83565b60405180910390fd5b6111ff8484848461270c565b50505050565b606061121082611d92565b61124f576040517f08c379a000000000000000000000000000000000000000000000000000000000815260040161124690614a43565b60405180910390fd5b600061125a8361255f565b60405160200161126a919061467c565b604051602081830303815290604052905060006112c6600d600086815260200190815260200160002060009054906101000a900460e81b7cffffffffffffffffffffffffffffffffffffffffffffffffffffffffff191661225e565b6112e2600f600087815260200190815260200160002054612768565b6112fe6010600088815260200190815260200160002054612768565b60405160200161131093929190614702565b6040516020818303038152906040529050600061133461132f8661293d565b612974565b905061142383836113448861255f565b61138d600d60008b815260200190815260200160002060009054906101000a900460e81b7cffffffffffffffffffffffffffffffffffffffffffffffffffffffffff191661225e565b6113a9600f60008c815260200190815260200160002054612768565b6113c5601060008d815260200190815260200160002054612768565b6113f760146113d38e610bed565b73ffffffffffffffffffffffffffffffffffffffff16612b1390919063ffffffff16565b8860405160200161140f98979695949392919061448b565b604051602081830303815290604052612974565b604051602001611433919061469e565b6040516020818303038152906040529350505050919050565b600d6020528060005260406000206000915054906101000a900460e81b81565b6000600560008473ffffffffffffffffffffffffffffffffffffffff1673ffffffffffffffffffffffffffffffffffffffff16815260200190815260200160002060008373ffffffffffffffffffffffffffffffffffffffff1673ffffffffffffffffffffffffffffffffffffffff16815260200190815260200160002060009054906101000a900460ff16905092915050565b6000610e9061150f600b612dca565b1061154f576040517f08c379a0000000000000000000000000000000000000000000000000000000008152600401611546906149c3565b60405180910390fd5b600c54341015611594576040517f08c379a000000000000000000000000000000000000000000000000000000000815260040161158b90614b43565b60405180910390fd5b6103e86103ea600c546115a79190614d40565b6115b19190614d0f565b600c819055506115c1600b612dd8565b60006115cd600b612dca565b90506115d93382612dee565b6000816001436115e99190614d9a565b4033306040516020016115ff94939291906147ad565b604051602081830303815290604052805190602001209050601081600260208110611653577f4e487b7100000000000000000000000000000000000000000000000000000000600052603260045260246000fd5b1a60f81b7effffffffffffffffffffffffffffffffffffffffffffffffffffffffffffff19167cffffffffffffffffffffffffffffffffffffffffffffffffffffffffff1916901c6008826001602081106116d7577f4e487b7100000000000000000000000000000000000000000000000000000000600052603260045260246000fd5b1a60f81b7effffffffffffffffffffffffffffffffffffffffffffffffffffffffffffff19167dffffffffffffffffffffffffffffffffffffffffffffffffffffffffffff1916901c8260006020811061175a577f4e487b7100000000000000000000000000000000000000000000000000000000600052603260045260246000fd5b1a60f81b7effffffffffffffffffffffffffffffffffffffffffffffffffffffffffffff1916177dffffffffffffffffffffffffffffffffffffffffffffffffffffffffffff191617600d600084815260200190815260200160002060006101000a81548162ffffff021916908360e81c02179055506000423330856040516020016117e9949392919061475f565b60405160208183030381529060405280519060200120905060108160026020811061183d577f4e487b7100000000000000000000000000000000000000000000000000000000600052603260045260246000fd5b1a60f81b7effffffffffffffffffffffffffffffffffffffffffffffffffffffffffffff19167cffffffffffffffffffffffffffffffffffffffffffffffffffffffffff1916901c6008826001602081106118c1577f4e487b7100000000000000000000000000000000000000000000000000000000600052603260045260246000fd5b1a60f81b7effffffffffffffffffffffffffffffffffffffffffffffffffffffffffffff19167dffffffffffffffffffffffffffffffffffffffffffffffffffffffffffff1916901c82600360208110611944577f4e487b7100000000000000000000000000000000000000000000000000000000600052603260045260246000fd5b1a60f81b7effffffffffffffffffffffffffffffffffffffffffffffffffffffffffffff1916177dffffffffffffffffffffffffffffffffffffffffffffffffffffffffffff191617600e600085815260200190815260200160002060006101000a81548162ffffff021916908360e81c021790555060ff826003602081106119f6577f4e487b7100000000000000000000000000000000000000000000000000000000600052603260045260246000fd5b1a60f81b60f81c60ff166037611a0c9190614d40565b611a169190614d0f565b6023611a229190614c82565b600f60008581526020019081526020016000208190555060ff82600460208110611a75577f4e487b7100000000000000000000000000000000000000000000000000000000600052603260045260246000fd5b1a60f81b60f81c60ff166004600f600087815260200190815260200160002054611a9f9190614d0f565b611aa99190614d40565b611ab39190614d0f565b60b4611abf9190614c82565b6010600085815260200190815260200160002081905550600073a81a6a910fed20374361b35c451a4a44f86ced4673ffffffffffffffffffffffffffffffffffffffff1634604051611b10906146c0565b60006040518083038185875af1925050503d8060008114611b4d576040519150601f19603f3d011682016040523d82523d6000602084013e611b52565b606091505b5050905080611b96576040517f08c379a0000000000000000000000000000000000000000000000000000000008152600401611b8d90614943565b60405180910390fd5b8394505050505090565b611ba8611dfe565b73ffffffffffffffffffffffffffffffffffffffff16611bc6610dfd565b73ffffffffffffffffffffffffffffffffffffffff1614611c1c576040517f08c379a0000000000000000000000000000000000000000000000000000000008152600401611c1390614b03565b60405180910390fd5b600073ffffffffffffffffffffffffffffffffffffffff168173ffffffffffffffffffffffffffffffffffffffff161415611c8c576040517f08c379a0000000000000000000000000000000000000000000000000000000008152600401611c8390614983565b60405180910390fd5b611c9581612198565b50565b600f6020528060005260406000206000915090505481565b60007f80ac58cd000000000000000000000000000000000000000000000000000000007bffffffffffffffffffffffffffffffffffffffffffffffffffffffff1916827bffffffffffffffffffffffffffffffffffffffffffffffffffffffff19161480611d7b57507f5b5e139f000000000000000000000000000000000000000000000000000000007bffffffffffffffffffffffffffffffffffffffffffffffffffffffff1916827bffffffffffffffffffffffffffffffffffffffffffffffffffffffff1916145b80611d8b5750611d8a82612fbc565b5b9050919050565b60008073ffffffffffffffffffffffffffffffffffffffff166002600084815260200190815260200160002060009054906101000a900473ffffffffffffffffffffffffffffffffffffffff1673ffffffffffffffffffffffffffffffffffffffff1614159050919050565b600033905090565b816004600083815260200190815260200160002060006101000a81548173ffffffffffffffffffffffffffffffffffffffff021916908373ffffffffffffffffffffffffffffffffffffffff160217905550808273ffffffffffffffffffffffffffffffffffffffff16611e7983610bed565b73ffffffffffffffffffffffffffffffffffffffff167f8c5be1e5ebec7d5bd14f71427d1e84f3dd0314c0f7b2291e5b200ac8c7c3b92560405160405180910390a45050565b6000611eca82611d92565b611f09576040517f08c379a0000000000000000000000000000000000000000000000000000000008152600401611f0090614a23565b60405180910390fd5b6000611f1483610bed565b90508073ffffffffffffffffffffffffffffffffffffffff168473ffffffffffffffffffffffffffffffffffffffff161480611f8357508373ffffffffffffffffffffffffffffffffffffffff16611f6b8461086f565b73ffffffffffffffffffffffffffffffffffffffff16145b80611f945750611f93818561146c565b5b91505092915050565b600081428486604051602001611fb694939291906147fb565b60405160208183030381529060405280519060200120905060108160026020811061200a577f4e487b7100000000000000000000000000000000000000000000000000000000600052603260045260246000fd5b1a60f81b7effffffffffffffffffffffffffffffffffffffffffffffffffffffffffffff19167cffffffffffffffffffffffffffffffffffffffffffffffffffffffffff1916901c60088260016020811061208e577f4e487b7100000000000000000000000000000000000000000000000000000000600052603260045260246000fd5b1a60f81b7effffffffffffffffffffffffffffffffffffffffffffffffffffffffffffff19167dffffffffffffffffffffffffffffffffffffffffffffffffffffffffffff1916901c82600060208110612111577f4e487b7100000000000000000000000000000000000000000000000000000000600052603260045260246000fd5b1a60f81b7effffffffffffffffffffffffffffffffffffffffffffffffffffffffffffff1916177dffffffffffffffffffffffffffffffffffffffffffffffffffffffffffff191617600e600084815260200190815260200160002060006101000a81548162ffffff021916908360e81c0217905550612192848484613026565b50505050565b6000600a60009054906101000a900473ffffffffffffffffffffffffffffffffffffffff16905081600a60006101000a81548173ffffffffffffffffffffffffffffffffffffffff021916908373ffffffffffffffffffffffffffffffffffffffff1602179055508173ffffffffffffffffffffffffffffffffffffffff168173ffffffffffffffffffffffffffffffffffffffff167f8be0079c531659141344cd1fd0a4f28419497f9722a3daafe3b4186f6b6457e060405160405180910390a35050565b60606000600667ffffffffffffffff8111156122a3577f4e487b7100000000000000000000000000000000000000000000000000000000600052604160045260246000fd5b6040519080825280601f01601f1916602001820160405280156122d55781602001600182028036833780820191505090505b50905060005b6003811015612555577f3031323334353637383961626364656600000000000000000000000000000000600f858360038110612340577f4e487b7100000000000000000000000000000000000000000000000000000000600052603260045260246000fd5b1a60f81b60f81c1660ff1660108110612382577f4e487b7100000000000000000000000000000000000000000000000000000000600052603260045260246000fd5b1a60f81b8260016002846123969190614d40565b6123a09190614c82565b815181106123d7577f4e487b7100000000000000000000000000000000000000000000000000000000600052603260045260246000fd5b60200101907effffffffffffffffffffffffffffffffffffffffffffffffffffffffffffff1916908160001a9053507f3031323334353637383961626364656600000000000000000000000000000000600f6004868460038110612464577f4e487b7100000000000000000000000000000000000000000000000000000000600052603260045260246000fd5b1a60f81b7effffffffffffffffffffffffffffffffffffffffffffffffffffffffffffff1916901c60f81c1660ff16601081106124ca577f4e487b7100000000000000000000000000000000000000000000000000000000600052603260045260246000fd5b1a60f81b826002836124dc9190614d40565b81518110612513577f4e487b7100000000000000000000000000000000000000000000000000000000600052603260045260246000fd5b60200101907effffffffffffffffffffffffffffffffffffffffffffffffffffffffffffff1916908160001a905350808061254d90614f66565b9150506122db565b5080915050919050565b606060008214156125a7576040518060400160405280600181526020017f30000000000000000000000000000000000000000000000000000000000000008152509050612707565b600082905060005b600082146125d95780806125c290614f66565b915050600a826125d29190614d0f565b91506125af565b60008167ffffffffffffffff81111561261b577f4e487b7100000000000000000000000000000000000000000000000000000000600052604160045260246000fd5b6040519080825280601f01601f19166020018201604052801561264d5781602001600182028036833780820191505090505b5090505b60008514612700576001826126669190614d9a565b9150600a856126759190614fe7565b60306126819190614c82565b60f81b8183815181106126bd577f4e487b7100000000000000000000000000000000000000000000000000000000600052603260045260246000fd5b60200101907effffffffffffffffffffffffffffffffffffffffffffffffffffffffffffff1916908160001a905350600a856126f99190614d0f565b9450612651565b8093505050505b919050565b612717848484611f9d565b61272384848484613282565b612762576040517f08c379a000000000000000000000000000000000000000000000000000000000815260040161275990614963565b60405180910390fd5b50505050565b606060008214156127b0576040518060400160405280600181526020017f30000000000000000000000000000000000000000000000000000000000000008152509050612938565b600082905060005b600082146127e25780806127cb90614f66565b915050600a826127db9190614d0f565b91506127b8565b60008167ffffffffffffffff811115612824577f4e487b7100000000000000000000000000000000000000000000000000000000600052604160045260246000fd5b6040519080825280601f01601f1916602001820160405280156128565781602001600182028036833780820191505090505b50905060008290505b60008614612930576001816128749190614d9a565b90506000600a80886128869190614d0f565b6128909190614d40565b8761289b9190614d9a565b60306128a79190614cd8565b905060008160f81b9050808484815181106128eb577f4e487b7100000000000000000000000000000000000000000000000000000000600052603260045260246000fd5b60200101907effffffffffffffffffffffffffffffffffffffffffffffffffffffffffffff1916908160001a905350600a886129279190614d0f565b9750505061285f565b819450505050505b919050565b6060600061294a83611060565b60405160200161295a91906146d5565b604051602081830303815290604052905080915050919050565b606060008251141561299757604051806020016040528060008152509050612b0e565b6000604051806060016040528060408152602001615f2d60409139905060006003600285516129c69190614c82565b6129d09190614d0f565b60046129dc9190614d40565b905060006020826129ed9190614c82565b67ffffffffffffffff811115612a2c577f4e487b7100000000000000000000000000000000000000000000000000000000600052604160045260246000fd5b6040519080825280601f01601f191660200182016040528015612a5e5781602001600182028036833780820191505090505b509050818152600183018586518101602084015b81831015612acd576003830192508251603f8160121c168501518253600182019150603f81600c1c168501518253600182019150603f8160061c168501518253600182019150603f8116850151825360018201915050612a72565b600389510660018114612ae75760028114612af757612b02565b613d3d60f01b6002830352612b02565b603d60f81b60018303525b50505050508093505050505b919050565b606060006002836002612b269190614d40565b612b309190614c82565b67ffffffffffffffff811115612b6f577f4e487b7100000000000000000000000000000000000000000000000000000000600052604160045260246000fd5b6040519080825280601f01601f191660200182016040528015612ba15781602001600182028036833780820191505090505b5090507f300000000000000000000000000000000000000000000000000000000000000081600081518110612bff577f4e487b7100000000000000000000000000000000000000000000000000000000600052603260045260246000fd5b60200101907effffffffffffffffffffffffffffffffffffffffffffffffffffffffffffff1916908160001a9053507f780000000000000000000000000000000000000000000000000000000000000081600181518110612c89577f4e487b7100000000000000000000000000000000000000000000000000000000600052603260045260246000fd5b60200101907effffffffffffffffffffffffffffffffffffffffffffffffffffffffffffff1916908160001a90535060006001846002612cc99190614d40565b612cd39190614c82565b90505b6001811115612dbf577f3031323334353637383961626364656600000000000000000000000000000000600f861660108110612d3b577f4e487b7100000000000000000000000000000000000000000000000000000000600052603260045260246000fd5b1a60f81b828281518110612d78577f4e487b7100000000000000000000000000000000000000000000000000000000600052603260045260246000fd5b60200101907effffffffffffffffffffffffffffffffffffffffffffffffffffffffffffff1916908160001a905350600485901c945080612db890614ed9565b9050612cd6565b508091505092915050565b600081600001549050919050565b6001816000016000828254019250508190555050565b600073ffffffffffffffffffffffffffffffffffffffff168273ffffffffffffffffffffffffffffffffffffffff161415612e5e576040517f08c379a0000000000000000000000000000000000000000000000000000000008152600401612e5590614ac3565b60405180910390fd5b612e6781611d92565b15612ea7576040517f08c379a0000000000000000000000000000000000000000000000000000000008152600401612e9e906149a3565b60405180910390fd5b612eb360008383613419565b6001600360008473ffffffffffffffffffffffffffffffffffffffff1673ffffffffffffffffffffffffffffffffffffffff1681526020019081526020016000206000828254612f039190614c82565b92505081905550816002600083815260200190815260200160002060006101000a81548173ffffffffffffffffffffffffffffffffffffffff021916908373ffffffffffffffffffffffffffffffffffffffff160217905550808273ffffffffffffffffffffffffffffffffffffffff16600073ffffffffffffffffffffffffffffffffffffffff167fddf252ad1be2c89b69c2b068fc378daa952ba7f163c4a11628f55a4df523b3ef60405160405180910390a45050565b60007f01ffc9a7000000000000000000000000000000000000000000000000000000007bffffffffffffffffffffffffffffffffffffffffffffffffffffffff1916827bffffffffffffffffffffffffffffffffffffffffffffffffffffffff1916149050919050565b8273ffffffffffffffffffffffffffffffffffffffff1661304682610bed565b73ffffffffffffffffffffffffffffffffffffffff161461309c576040517f08c379a000000000000000000000000000000000000000000000000000000000815260040161309390614b23565b60405180910390fd5b600073ffffffffffffffffffffffffffffffffffffffff168273ffffffffffffffffffffffffffffffffffffffff16141561310c576040517f08c379a0000000000000000000000000000000000000000000000000000000008152600401613103906149e3565b60405180910390fd5b613117838383613419565b613122600082611e06565b6001600360008573ffffffffffffffffffffffffffffffffffffffff1673ffffffffffffffffffffffffffffffffffffffff16815260200190815260200160002060008282546131729190614d9a565b925050819055506001600360008473ffffffffffffffffffffffffffffffffffffffff1673ffffffffffffffffffffffffffffffffffffffff16815260200190815260200160002060008282546131c99190614c82565b92505081905550816002600083815260200190815260200160002060006101000a81548173ffffffffffffffffffffffffffffffffffffffff021916908373ffffffffffffffffffffffffffffffffffffffff160217905550808273ffffffffffffffffffffffffffffffffffffffff168473ffffffffffffffffffffffffffffffffffffffff167fddf252ad1be2c89b69c2b068fc378daa952ba7f163c4a11628f55a4df523b3ef60405160405180910390a4505050565b60006132a38473ffffffffffffffffffffffffffffffffffffffff1661352d565b1561340c578373ffffffffffffffffffffffffffffffffffffffff1663150b7a026132cc611dfe565b8786866040518563ffffffff1660e01b81526004016132ee949392919061487f565b602060405180830381600087803b15801561330857600080fd5b505af192505050801561333957506040513d601f19601f820116820180604052508101906133369190613b5e565b60015b6133bc573d8060008114613369576040519150601f19603f3d011682016040523d82523d6000602084013e61336e565b606091505b506000815114156133b4576040517f08c379a00000000000000000000000000000000000000000000000000000000081526004016133ab90614963565b60405180910390fd5b805181602001fd5b63150b7a0260e01b7bffffffffffffffffffffffffffffffffffffffffffffffffffffffff1916817bffffffffffffffffffffffffffffffffffffffffffffffffffffffff191614915050613411565b600190505b949350505050565b613424838383613540565b600073ffffffffffffffffffffffffffffffffffffffff168373ffffffffffffffffffffffffffffffffffffffff1614156134675761346281613545565b6134a6565b8173ffffffffffffffffffffffffffffffffffffffff168373ffffffffffffffffffffffffffffffffffffffff16146134a5576134a4838261358e565b5b5b600073ffffffffffffffffffffffffffffffffffffffff168273ffffffffffffffffffffffffffffffffffffffff1614156134e9576134e4816136fb565b613528565b8273ffffffffffffffffffffffffffffffffffffffff168273ffffffffffffffffffffffffffffffffffffffff161461352757613526828261383e565b5b5b505050565b600080823b905060008111915050919050565b505050565b6008805490506009600083815260200190815260200160002081905550600881908060018154018082558091505060019003906000526020600020016000909190919091505550565b6000600161359b84610cb7565b6135a59190614d9a565b905060006007600084815260200190815260200160002054905081811461368a576000600660008673ffffffffffffffffffffffffffffffffffffffff1673ffffffffffffffffffffffffffffffffffffffff168152602001908152602001600020600084815260200190815260200160002054905080600660008773ffffffffffffffffffffffffffffffffffffffff1673ffffffffffffffffffffffffffffffffffffffff168152602001908152602001600020600084815260200190815260200160002081905550816007600083815260200190815260200160002081905550505b6007600084815260200190815260200160002060009055600660008573ffffffffffffffffffffffffffffffffffffffff1673ffffffffffffffffffffffffffffffffffffffff16815260200190815260200160002060008381526020019081526020016000206000905550505050565b6000600160088054905061370f9190614d9a565b9050600060096000848152602001908152602001600020549050600060088381548110613765577f4e487b7100000000000000000000000000000000000000000000000000000000600052603260045260246000fd5b9060005260206000200154905080600883815481106137ad577f4e487b7100000000000000000000000000000000000000000000000000000000600052603260045260246000fd5b906000526020600020018190555081600960008381526020019081526020016000208190555060096000858152602001908152602001600020600090556008805480613822577f4e487b7100000000000000000000000000000000000000000000000000000000600052603160045260246000fd5b6001900381819060005260206000200160009055905550505050565b600061384983610cb7565b905081600660008573ffffffffffffffffffffffffffffffffffffffff1673ffffffffffffffffffffffffffffffffffffffff168152602001908152602001600020600083815260200190815260200160002081905550806007600084815260200190815260200160002081905550505050565b60006138d06138cb84614c03565b614bde565b9050828152602081018484840111156138e857600080fd5b6138f3848285614e97565b509392505050565b60008135905061390a81615ed0565b92915050565b60008135905061391f81615ee7565b92915050565b60008135905061393481615efe565b92915050565b60008151905061394981615efe565b92915050565b600082601f83011261396057600080fd5b81356139708482602086016138bd565b91505092915050565b60008135905061398881615f15565b92915050565b6000602082840312156139a057600080fd5b60006139ae848285016138fb565b91505092915050565b600080604083850312156139ca57600080fd5b60006139d8858286016138fb565b92505060206139e9858286016138fb565b9150509250929050565b600080600060608486031215613a0857600080fd5b6000613a16868287016138fb565b9350506020613a27868287016138fb565b9250506040613a3886828701613979565b9150509250925092565b60008060008060808587031215613a5857600080fd5b6000613a66878288016138fb565b9450506020613a77878288016138fb565b9350506040613a8887828801613979565b925050606085013567ffffffffffffffff811115613aa557600080fd5b613ab18782880161394f565b91505092959194509250565b60008060408385031215613ad057600080fd5b6000613ade858286016138fb565b9250506020613aef85828601613910565b9150509250929050565b60008060408385031215613b0c57600080fd5b6000613b1a858286016138fb565b9250506020613b2b85828601613979565b9150509250929050565b600060208284031215613b4757600080fd5b6000613b5584828501613925565b91505092915050565b600060208284031215613b7057600080fd5b6000613b7e8482850161393a565b91505092915050565b600060208284031215613b9957600080fd5b6000613ba784828501613979565b91505092915050565b613bb981614de0565b82525050565b613bc881614dce565b82525050565b613bdf613bda82614dce565b614faf565b82525050565b613bee81614df2565b82525050565b613c05613c0082614e2a565b614fc1565b82525050565b613c1481614dfe565b82525050565b6000613c2582614c34565b613c2f8185614c4a565b9350613c3f818560208601614ea6565b613c48816150d4565b840191505092915050565b6000613c5e82614c3f565b613c688185614c66565b9350613c78818560208601614ea6565b613c81816150d4565b840191505092915050565b6000613c9782614c3f565b613ca18185614c77565b9350613cb1818560208601614ea6565b80840191505092915050565b6000613cca602a83614c77565b9150613cd5826150f2565b602a82019050919050565b6000613ced601583614c77565b9150613cf882615141565b601582019050919050565b6000613d10600983614c77565b9150613d1b8261516a565b600982019050919050565b6000613d33602b83614c66565b9150613d3e82615193565b604082019050919050565b6000613d56600e83614c66565b9150613d61826151e2565b602082019050919050565b6000613d79603283614c66565b9150613d848261520b565b604082019050919050565b6000613d9c600583614c77565b9150613da78261525a565b600582019050919050565b6000613dbf602683614c66565b9150613dca82615283565b604082019050919050565b6000613de2600d83614c77565b9150613ded826152d2565b600d82019050919050565b6000613e05601c83614c66565b9150613e10826152fb565b602082019050919050565b6000613e28601083614c77565b9150613e3382615324565b601082019050919050565b6000613e4b600c83614c66565b9150613e568261534d565b602082019050919050565b6000613e6e601d83614c77565b9150613e7982615376565b601d82019050919050565b6000613e91602483614c66565b9150613e9c8261539f565b604082019050919050565b6000613eb4601983614c66565b9150613ebf826153ee565b602082019050919050565b6000613ed7603a83614c77565b9150613ee282615417565b603a82019050919050565b6000613efa602c83614c66565b9150613f0582615466565b604082019050919050565b6000613f1d600d83614c77565b9150613f28826154b5565b600d82019050919050565b6000613f40606183614c77565b9150613f4b826154de565b606182019050919050565b6000613f63600983614c66565b9150613f6e82615579565b602082019050919050565b6000613f86600d83614c77565b9150613f91826155a2565b600d82019050919050565b6000613fa9603883614c66565b9150613fb4826155cb565b604082019050919050565b6000613fcc602a83614c66565b9150613fd78261561a565b604082019050919050565b6000613fef602983614c66565b9150613ffa82615669565b604082019050919050565b6000614012600283614c77565b915061401d826156b8565b600282019050919050565b6000614035600883614c77565b9150614040826156e1565b600882019050919050565b6000614058602083614c66565b91506140638261570a565b602082019050919050565b600061407b600d83614c77565b915061408682615733565b600d82019050919050565b600061409e600383614c77565b91506140a98261575c565b600382019050919050565b60006140c1606a83614c77565b91506140cc82615785565b606a82019050919050565b60006140e4602c83614c66565b91506140ef82615820565b604082019050919050565b6000614107602983614c77565b91506141128261586f565b602982019050919050565b600061412a602983614c77565b9150614135826158be565b602982019050919050565b600061414d601283614c77565b91506141588261590d565b601282019050919050565b6000614170603583614c77565b915061417b82615936565b603582019050919050565b6000614193602083614c66565b915061419e82615985565b602082019050919050565b60006141b6606a83614c77565b91506141c1826159ae565b606a82019050919050565b60006141d9602983614c66565b91506141e482615a49565b604082019050919050565b60006141fc600a83614c66565b915061420782615a98565b602082019050919050565b600061421f600483614c77565b915061422a82615ac1565b600482019050919050565b6000614242603c83614c77565b915061424d82615aea565b603c82019050919050565b6000614265600383614c77565b915061427082615b39565b600382019050919050565b6000614288602183614c66565b915061429382615b62565b604082019050919050565b60006142ab602f83614c77565b91506142b682615bb1565b602f82019050919050565b60006142ce601d83614c77565b91506142d982615c00565b601d82019050919050565b60006142f1600083614c5b565b91506142fc82615c29565b600082019050919050565b6000614314603183614c66565b915061431f82615c2c565b604082019050919050565b6000614337604183614c77565b915061434282615c7b565b604182019050919050565b600061435a602c83614c66565b915061436582615cf0565b604082019050919050565b600061437d600d83614c77565b915061438882615d3f565b600d82019050919050565b60006143a0606b83614c77565b91506143ab82615d68565b606b82019050919050565b60006143c3601683614c77565b91506143ce82615e03565b601682019050919050565b60006143e6601a83614c77565b91506143f182615e2c565b601a82019050919050565b6000614409601f83614c77565b915061441482615e55565b601f82019050919050565b600061442c600683614c77565b915061443782615e7e565b600682019050919050565b600061444f601a83614c77565b915061445a82615ea7565b601a82019050919050565b61446e81614e80565b82525050565b61448561448082614e80565b614fdd565b82525050565b600061449682613d03565b91506144a2828b613c8c565b91506144ad82614140565b91506144b9828a613c8c565b91506144c48261429e565b91506144d08289613c8c565b91506144db82614163565b91506144e78288613c8c565b91506144f28261411d565b91506144fe8287613c8c565b9150614509826140fa565b91506145158286613c8c565b915061452082614370565b915061452c8285613c8c565b91506145378261406e565b915061454282614442565b915061454e8284613c8c565b915061455982614005565b91508190509998505050505050505050565b600061457682613f79565b9150614581826141a9565b915061458c82614393565b915061459782614212565b91506145a282613dd5565b91506145ad82613e1b565b91506145b98288613c8c565b91506145c482614235565b91506145d08287613c8c565b91506145db826143fc565b91506145e682614212565b91506145f182613f10565b91506145fc826140b4565b915061460782613f33565b91506146138286613c8c565b915061461e82614258565b915061462982613cbd565b91506146358285613c8c565b915061464082613d8f565b915061464b82613e61565b91506146578284613c8c565b915061466282613eca565b915061466d82614212565b91508190509695505050505050565b600061468782614028565b91506146938284613c8c565b915081905092915050565b60006146a9826142c1565b91506146b58284613c8c565b915081905092915050565b60006146cb826142e4565b9150819050919050565b60006146e08261432a565b91506146ec8284613c8c565b91506146f78261441f565b915081905092915050565b600061470d826143d9565b91506147198286613c8c565b9150614724826143b6565b91506147308285613c8c565b915061473b82613ce0565b91506147478284613c8c565b915061475282614091565b9150819050949350505050565b600061476b8287614474565b60208201915061477b8286613bce565b60148201915061478b8285613bce565b60148201915061479b8284614474565b60208201915081905095945050505050565b60006147b98287614474565b6020820191506147c98286613bf4565b6020820191506147d98285613bce565b6014820191506147e98284613bce565b60148201915081905095945050505050565b60006148078287614474565b6020820191506148178286614474565b6020820191506148278285613bce565b6014820191506148378284613bce565b60148201915081905095945050505050565b600060208201905061485e6000830184613bbf565b92915050565b60006020820190506148796000830184613bb0565b92915050565b60006080820190506148946000830187613bbf565b6148a16020830186613bbf565b6148ae6040830185614465565b81810360608301526148c08184613c1a565b905095945050505050565b60006020820190506148e06000830184613be5565b92915050565b60006020820190506148fb6000830184613c0b565b92915050565b6000602082019050818103600083015261491b8184613c53565b905092915050565b6000602082019050818103600083015261493c81613d26565b9050919050565b6000602082019050818103600083015261495c81613d49565b9050919050565b6000602082019050818103600083015261497c81613d6c565b9050919050565b6000602082019050818103600083015261499c81613db2565b9050919050565b600060208201905081810360008301526149bc81613df8565b9050919050565b600060208201905081810360008301526149dc81613e3e565b9050919050565b600060208201905081810360008301526149fc81613e84565b9050919050565b60006020820190508181036000830152614a1c81613ea7565b9050919050565b60006020820190508181036000830152614a3c81613eed565b9050919050565b60006020820190508181036000830152614a5c81613f56565b9050919050565b60006020820190508181036000830152614a7c81613f9c565b9050919050565b60006020820190508181036000830152614a9c81613fbf565b9050919050565b60006020820190508181036000830152614abc81613fe2565b9050919050565b60006020820190508181036000830152614adc8161404b565b9050919050565b60006020820190508181036000830152614afc816140d7565b9050919050565b60006020820190508181036000830152614b1c81614186565b9050919050565b60006020820190508181036000830152614b3c816141cc565b9050919050565b60006020820190508181036000830152614b5c816141ef565b9050919050565b60006020820190508181036000830152614b7c8161427b565b9050919050565b60006020820190508181036000830152614b9c81614307565b9050919050565b60006020820190508181036000830152614bbc8161434d565b9050919050565b6000602082019050614bd86000830184614465565b92915050565b6000614be8614bf9565b9050614bf48282614f35565b919050565b6000604051905090565b600067ffffffffffffffff821115614c1e57614c1d6150a5565b5b614c27826150d4565b9050602081019050919050565b600081519050919050565b600081519050919050565b600082825260208201905092915050565b600081905092915050565b600082825260208201905092915050565b600081905092915050565b6000614c8d82614e80565b9150614c9883614e80565b9250827fffffffffffffffffffffffffffffffffffffffffffffffffffffffffffffffff03821115614ccd57614ccc615018565b5b828201905092915050565b6000614ce382614e8a565b9150614cee83614e8a565b92508260ff03821115614d0457614d03615018565b5b828201905092915050565b6000614d1a82614e80565b9150614d2583614e80565b925082614d3557614d34615047565b5b828204905092915050565b6000614d4b82614e80565b9150614d5683614e80565b9250817fffffffffffffffffffffffffffffffffffffffffffffffffffffffffffffffff0483118215151615614d8f57614d8e615018565b5b828202905092915050565b6000614da582614e80565b9150614db083614e80565b925082821015614dc357614dc2615018565b5b828203905092915050565b6000614dd982614e60565b9050919050565b6000614deb82614e60565b9050919050565b60008115159050919050565b60007fffffff000000000000000000000000000000000000000000000000000000000082169050919050565b6000819050919050565b60007fffffffff0000000000000000000000000000000000000000000000000000000082169050919050565b600073ffffffffffffffffffffffffffffffffffffffff82169050919050565b6000819050919050565b600060ff82169050919050565b82818337600083830152505050565b60005b83811015614ec4578082015181840152602081019050614ea9565b83811115614ed3576000848401525b50505050565b6000614ee482614e80565b91506000821415614ef857614ef7615018565b5b600182039050919050565b60006002820490506001821680614f1b57607f821691505b60208210811415614f2f57614f2e615076565b5b50919050565b614f3e826150d4565b810181811067ffffffffffffffff82111715614f5d57614f5c6150a5565b5b80604052505050565b6000614f7182614e80565b91507fffffffffffffffffffffffffffffffffffffffffffffffffffffffffffffffff821415614fa457614fa3615018565b5b600182019050919050565b6000614fba82614fcb565b9050919050565b6000819050919050565b6000614fd6826150e5565b9050919050565b6000819050919050565b6000614ff282614e80565b9150614ffd83614e80565b92508261500d5761500c615047565b5b828206905092915050565b7f4e487b7100000000000000000000000000000000000000000000000000000000600052601160045260246000fd5b7f4e487b7100000000000000000000000000000000000000000000000000000000600052601260045260246000fd5b7f4e487b7100000000000000000000000000000000000000000000000000000000600052602260045260246000fd5b7f4e487b7100000000000000000000000000000000000000000000000000000000600052604160045260246000fd5b6000601f19601f8301169050919050565b60008160601b9050919050565b7f3c2f673e3c6720636c6173733d226d6f75746822207472616e73666f726d3d2260008201527f7472616e736c6174652800000000000000000000000000000000000000000000602082015250565b7f20616e64206d6f757468206c656e677468206f66200000000000000000000000600082015250565b7f7b226e616d65223a220000000000000000000000000000000000000000000000600082015250565b7f455243373231456e756d657261626c653a206f776e657220696e646578206f7560008201527f74206f6620626f756e6473000000000000000000000000000000000000000000602082015250565b7f636f756c64206e6f742073656e64000000000000000000000000000000000000600082015250565b7f4552433732313a207472616e7366657220746f206e6f6e20455243373231526560008201527f63656976657220696d706c656d656e7465720000000000000000000000000000602082015250565b7f2c3029223e000000000000000000000000000000000000000000000000000000600082015250565b7f4f776e61626c653a206e6577206f776e657220697320746865207a65726f206160008201527f6464726573730000000000000000000000000000000000000000000000000000602082015250565b7f3c672069643d2268656164223e00000000000000000000000000000000000000600082015250565b7f4552433732313a20746f6b656e20616c7265616479206d696e74656400000000600082015250565b7f3c656c6c697073652066696c6c3d222300000000000000000000000000000000600082015250565b7f444f4e45204d494e54494e470000000000000000000000000000000000000000600082015250565b7f3c7061746820643d224d20313330203234302051203132302032313020000000600082015250565b7f4552433732313a207472616e7366657220746f20746865207a65726f2061646460008201527f7265737300000000000000000000000000000000000000000000000000000000602082015250565b7f4552433732313a20617070726f766520746f2063616c6c657200000000000000600082015250565b7f2032333522207374726f6b653d22626c61636b22207374726f6b652d7769647460008201527f683d2233222066696c6c3d227472616e73706172656e74222f3e000000000000602082015250565b7f4552433732313a206f70657261746f7220717565727920666f72206e6f6e657860008201527f697374656e7420746f6b656e0000000000000000000000000000000000000000602082015250565b7f3c672069643d2265796532223e00000000000000000000000000000000000000600082015250565b7f3c656c6c697073652072793d22332e35222072783d2233222069643d2273766760008201527f5f34222063793d223136392e35222063783d2232303822207374726f6b652d7760208201527f696474683d2235222066696c6c3d222330303030303022207374726f6b653d2260408201527f2300000000000000000000000000000000000000000000000000000000000000606082015250565b7f6e6f742065786973740000000000000000000000000000000000000000000000600082015250565b7f3c672069643d2265796531223e00000000000000000000000000000000000000600082015250565b7f4552433732313a20617070726f76652063616c6c6572206973206e6f74206f7760008201527f6e6572206e6f7220617070726f76656420666f7220616c6c0000000000000000602082015250565b7f4552433732313a2062616c616e636520717565727920666f7220746865207a6560008201527f726f206164647265737300000000000000000000000000000000000000000000602082015250565b7f4552433732313a206f776e657220717565727920666f72206e6f6e657869737460008201527f656e7420746f6b656e0000000000000000000000000000000000000000000000602082015250565b7f227d000000000000000000000000000000000000000000000000000000000000600082015250565b7f4c6f6f6769652023000000000000000000000000000000000000000000000000600082015250565b7f4552433732313a206d696e7420746f20746865207a65726f2061646472657373600082015250565b7f222c2022696d616765223a202200000000000000000000000000000000000000600082015250565b7f2121210000000000000000000000000000000000000000000000000000000000600082015250565b7f3c656c6c69707365207374726f6b652d77696474683d2233222072793d22323960008201527f2e35222072783d2232392e35222069643d227376675f32222063793d2231363860208201527f2e35222063783d223230392e3522207374726f6b653d2223303030222066696c60408201527f6c3d2223666666222f3e00000000000000000000000000000000000000000000606082015250565b7f4552433732313a20617070726f76656420717565727920666f72206e6f6e657860008201527f697374656e7420746f6b656e0000000000000000000000000000000000000000602082015250565b7f7d2c7b2274726169745f74797065223a20226d6f7574684c656e677468222c2060008201527f2276616c7565223a200000000000000000000000000000000000000000000000602082015250565b7f227d2c7b2274726169745f74797065223a20226368756262696e657373222c2060008201527f2276616c7565223a200000000000000000000000000000000000000000000000602082015250565b7f222c20226465736372697074696f6e223a220000000000000000000000000000600082015250565b7f222c202261747472696275746573223a205b7b2274726169745f74797065223a60008201527f2022636f6c6f72222c202276616c7565223a2022230000000000000000000000602082015250565b7f4f776e61626c653a2063616c6c6572206973206e6f7420746865206f776e6572600082015250565b7f3c656c6c69707365207374726f6b652d77696474683d2233222072793d22323960008201527f2e35222072783d2232392e35222069643d227376675f31222063793d2231353460208201527f2e35222063783d223138312e3522207374726f6b653d2223303030222066696c60408201527f6c3d2223666666222f3e00000000000000000000000000000000000000000000606082015250565b7f4552433732313a207472616e73666572206f6620746f6b656e2074686174206960008201527f73206e6f74206f776e0000000000000000000000000000000000000000000000602082015250565b7f4e4f5420454e4f55474800000000000000000000000000000000000000000000600082015250565b7f3c2f673e00000000000000000000000000000000000000000000000000000000600082015250565b7f22207374726f6b652d77696474683d2233222063783d223230342e352220637960008201527f3d223231312e3830303635222069643d227376675f35222072783d2200000000602082015250565b7f222f3e0000000000000000000000000000000000000000000000000000000000600082015250565b7f4552433732313a20617070726f76616c20746f2063757272656e74206f776e6560008201527f7200000000000000000000000000000000000000000000000000000000000000602082015250565b7f222c202265787465726e616c5f75726c223a2268747470733a2f2f6275726e7960008201527f626f79732e636f6d2f746f6b656e2f0000000000000000000000000000000000602082015250565b7f646174613a6170706c69636174696f6e2f6a736f6e3b6261736536342c000000600082015250565b50565b7f4552433732313a207472616e736665722063616c6c6572206973206e6f74206f60008201527f776e6572206e6f7220617070726f766564000000000000000000000000000000602082015250565b7f3c7376672077696474683d2234303022206865696768743d223430302220786d60008201527f6c6e733d22687474703a2f2f7777772e77332e6f72672f323030302f7376672260208201527f3e00000000000000000000000000000000000000000000000000000000000000604082015250565b7f455243373231456e756d657261626c653a20676c6f62616c20696e646578206f60008201527f7574206f6620626f756e64730000000000000000000000000000000000000000602082015250565b7f7d5d2c20226f776e6572223a2200000000000000000000000000000000000000600082015250565b7f3c656c6c697073652072793d22332e35222072783d22322e35222069643d227360008201527f76675f33222063793d223135342e35222063783d223137332e3522207374726f60208201527f6b652d77696474683d223522207374726f6b653d2223303030222066696c6c3d60408201527f2223303030303030222f3e000000000000000000000000000000000000000000606082015250565b7f20776974682061206368756262696e657373206f662000000000000000000000600082015250565b7f54686973204c6f6f6769652069732074686520636f6c6f722023000000000000600082015250565b7f222072793d2235312e383030363522207374726f6b653d2223303030222f3e00600082015250565b7f3c2f7376673e0000000000000000000000000000000000000000000000000000600082015250565b7f646174613a696d6167652f7376672b786d6c3b6261736536342c000000000000600082015250565b615ed981614dce565b8114615ee457600080fd5b50565b615ef081614df2565b8114615efb57600080fd5b50565b615f0781614e34565b8114615f1257600080fd5b50565b615f1e81614e80565b8114615f2957600080fd5b5056fe4142434445464748494a4b4c4d4e4f505152535455565758595a6162636465666768696a6b6c6d6e6f707172737475767778797a303132333435363738392b2fa26469706673582212201f29bf257faa4d72f616975f64de3eb3bcf25fcb875802c0402b3442e54668a964736f6c63430008040033",
  "devdoc": {
    "kind": "dev",
    "methods": {
      "approve(address,uint256)": {
        "details": "See {IERC721-approve}."
      },
      "balanceOf(address)": {
        "details": "See {IERC721-balanceOf}."
      },
      "getApproved(uint256)": {
        "details": "See {IERC721-getApproved}."
      },
      "isApprovedForAll(address,address)": {
        "details": "See {IERC721-isApprovedForAll}."
      },
      "name()": {
        "details": "See {IERC721Metadata-name}."
      },
      "owner()": {
        "details": "Returns the address of the current owner."
      },
      "ownerOf(uint256)": {
        "details": "See {IERC721-ownerOf}."
      },
      "renounceOwnership()": {
        "details": "Leaves the contract without owner. It will not be possible to call `onlyOwner` functions anymore. Can only be called by the current owner. NOTE: Renouncing ownership will leave the contract without an owner, thereby removing any functionality that is only available to the owner."
      },
      "safeTransferFrom(address,address,uint256)": {
        "details": "See {IERC721-safeTransferFrom}."
      },
      "safeTransferFrom(address,address,uint256,bytes)": {
        "details": "See {IERC721-safeTransferFrom}."
      },
      "setApprovalForAll(address,bool)": {
        "details": "See {IERC721-setApprovalForAll}."
      },
      "supportsInterface(bytes4)": {
        "details": "See {IERC165-supportsInterface}."
      },
      "symbol()": {
        "details": "See {IERC721Metadata-symbol}."
      },
      "tokenByIndex(uint256)": {
        "details": "See {IERC721Enumerable-tokenByIndex}."
      },
      "tokenOfOwnerByIndex(address,uint256)": {
        "details": "See {IERC721Enumerable-tokenOfOwnerByIndex}."
      },
      "totalSupply()": {
        "details": "See {IERC721Enumerable-totalSupply}."
      },
      "transferFrom(address,address,uint256)": {
        "details": "See {IERC721-transferFrom}."
      },
      "transferOwnership(address)": {
        "details": "Transfers ownership of the contract to a new account (`newOwner`). Can only be called by the current owner."
      }
    },
    "version": 1
  },
  "userdoc": {
    "kind": "user",
    "methods": {},
    "version": 1
  },
  "storageLayout": {
    "storage": [
      {
        "astId": 129,
        "contract": "contracts/YourCollectible.sol:YourCollectible",
        "label": "_name",
        "offset": 0,
        "slot": "0",
        "type": "t_string_storage"
      },
      {
        "astId": 131,
        "contract": "contracts/YourCollectible.sol:YourCollectible",
        "label": "_symbol",
        "offset": 0,
        "slot": "1",
        "type": "t_string_storage"
      },
      {
        "astId": 135,
        "contract": "contracts/YourCollectible.sol:YourCollectible",
        "label": "_owners",
        "offset": 0,
        "slot": "2",
        "type": "t_mapping(t_uint256,t_address)"
      },
      {
        "astId": 139,
        "contract": "contracts/YourCollectible.sol:YourCollectible",
        "label": "_balances",
        "offset": 0,
        "slot": "3",
        "type": "t_mapping(t_address,t_uint256)"
      },
      {
        "astId": 143,
        "contract": "contracts/YourCollectible.sol:YourCollectible",
        "label": "_tokenApprovals",
        "offset": 0,
        "slot": "4",
        "type": "t_mapping(t_uint256,t_address)"
      },
      {
        "astId": 149,
        "contract": "contracts/YourCollectible.sol:YourCollectible",
        "label": "_operatorApprovals",
        "offset": 0,
        "slot": "5",
        "type": "t_mapping(t_address,t_mapping(t_address,t_bool))"
      },
      {
        "astId": 1068,
        "contract": "contracts/YourCollectible.sol:YourCollectible",
        "label": "_ownedTokens",
        "offset": 0,
        "slot": "6",
        "type": "t_mapping(t_address,t_mapping(t_uint256,t_uint256))"
      },
      {
        "astId": 1072,
        "contract": "contracts/YourCollectible.sol:YourCollectible",
        "label": "_ownedTokensIndex",
        "offset": 0,
        "slot": "7",
        "type": "t_mapping(t_uint256,t_uint256)"
      },
      {
        "astId": 1075,
        "contract": "contracts/YourCollectible.sol:YourCollectible",
        "label": "_allTokens",
        "offset": 0,
        "slot": "8",
        "type": "t_array(t_uint256)dyn_storage"
      },
      {
        "astId": 1079,
        "contract": "contracts/YourCollectible.sol:YourCollectible",
        "label": "_allTokensIndex",
        "offset": 0,
        "slot": "9",
        "type": "t_mapping(t_uint256,t_uint256)"
      },
      {
        "astId": 7,
        "contract": "contracts/YourCollectible.sol:YourCollectible",
        "label": "_owner",
        "offset": 0,
        "slot": "10",
        "type": "t_address"
      },
      {
        "astId": 2374,
        "contract": "contracts/YourCollectible.sol:YourCollectible",
        "label": "_tokenIds",
        "offset": 0,
        "slot": "11",
        "type": "t_struct(Counter)1774_storage"
      },
      {
        "astId": 2389,
        "contract": "contracts/YourCollectible.sol:YourCollectible",
        "label": "price",
        "offset": 0,
        "slot": "12",
        "type": "t_uint256"
      },
      {
        "astId": 2393,
        "contract": "contracts/YourCollectible.sol:YourCollectible",
        "label": "color",
        "offset": 0,
        "slot": "13",
        "type": "t_mapping(t_uint256,t_bytes3)"
      },
      {
        "astId": 2397,
        "contract": "contracts/YourCollectible.sol:YourCollectible",
        "label": "eyeColor",
        "offset": 0,
        "slot": "14",
        "type": "t_mapping(t_uint256,t_bytes3)"
      },
      {
        "astId": 2401,
        "contract": "contracts/YourCollectible.sol:YourCollectible",
        "label": "chubbiness",
        "offset": 0,
        "slot": "15",
        "type": "t_mapping(t_uint256,t_uint256)"
      },
      {
        "astId": 2405,
        "contract": "contracts/YourCollectible.sol:YourCollectible",
        "label": "mouthLength",
        "offset": 0,
        "slot": "16",
        "type": "t_mapping(t_uint256,t_uint256)"
      }
    ],
    "types": {
      "t_address": {
        "encoding": "inplace",
        "label": "address",
        "numberOfBytes": "20"
      },
      "t_array(t_uint256)dyn_storage": {
        "base": "t_uint256",
        "encoding": "dynamic_array",
        "label": "uint256[]",
        "numberOfBytes": "32"
      },
      "t_bool": {
        "encoding": "inplace",
        "label": "bool",
        "numberOfBytes": "1"
      },
      "t_bytes3": {
        "encoding": "inplace",
        "label": "bytes3",
        "numberOfBytes": "3"
      },
      "t_mapping(t_address,t_bool)": {
        "encoding": "mapping",
        "key": "t_address",
        "label": "mapping(address => bool)",
        "numberOfBytes": "32",
        "value": "t_bool"
      },
      "t_mapping(t_address,t_mapping(t_address,t_bool))": {
        "encoding": "mapping",
        "key": "t_address",
        "label": "mapping(address => mapping(address => bool))",
        "numberOfBytes": "32",
        "value": "t_mapping(t_address,t_bool)"
      },
      "t_mapping(t_address,t_mapping(t_uint256,t_uint256))": {
        "encoding": "mapping",
        "key": "t_address",
        "label": "mapping(address => mapping(uint256 => uint256))",
        "numberOfBytes": "32",
        "value": "t_mapping(t_uint256,t_uint256)"
      },
      "t_mapping(t_address,t_uint256)": {
        "encoding": "mapping",
        "key": "t_address",
        "label": "mapping(address => uint256)",
        "numberOfBytes": "32",
        "value": "t_uint256"
      },
      "t_mapping(t_uint256,t_address)": {
        "encoding": "mapping",
        "key": "t_uint256",
        "label": "mapping(uint256 => address)",
        "numberOfBytes": "32",
        "value": "t_address"
      },
      "t_mapping(t_uint256,t_bytes3)": {
        "encoding": "mapping",
        "key": "t_uint256",
        "label": "mapping(uint256 => bytes3)",
        "numberOfBytes": "32",
        "value": "t_bytes3"
      },
      "t_mapping(t_uint256,t_uint256)": {
        "encoding": "mapping",
        "key": "t_uint256",
        "label": "mapping(uint256 => uint256)",
        "numberOfBytes": "32",
        "value": "t_uint256"
      },
      "t_string_storage": {
        "encoding": "bytes",
        "label": "string",
        "numberOfBytes": "32"
      },
      "t_struct(Counter)1774_storage": {
        "encoding": "inplace",
        "label": "struct Counters.Counter",
        "members": [
          {
            "astId": 1773,
            "contract": "contracts/YourCollectible.sol:YourCollectible",
            "label": "_value",
            "offset": 0,
            "slot": "0",
            "type": "t_uint256"
          }
        ],
        "numberOfBytes": "32"
      },
      "t_uint256": {
        "encoding": "inplace",
        "label": "uint256",
        "numberOfBytes": "32"
      }
    }
  }
}